{
  "_format": "hh-sol-artifact-1",
  "contractName": "Router",
  "sourceName": "contracts/Router.sol",
  "abi": [
    {
      "anonymous": false,
      "inputs": [
        {
          "indexed": true,
          "internalType": "address",
          "name": "previousOwner",
          "type": "address"
        },
        {
          "indexed": true,
          "internalType": "address",
          "name": "newOwner",
          "type": "address"
        }
      ],
      "name": "OwnershipTransferred",
      "type": "event"
    },
    {
      "anonymous": false,
      "inputs": [
        {
          "indexed": false,
          "internalType": "address",
          "name": "",
          "type": "address"
        },
        {
          "indexed": false,
          "internalType": "uint256",
          "name": "",
          "type": "uint256"
        }
      ],
      "name": "Received",
      "type": "event"
    },
    {
      "anonymous": false,
      "inputs": [
        {
          "indexed": true,
          "internalType": "address",
          "name": "user",
          "type": "address"
        },
        {
          "indexed": true,
          "internalType": "address",
          "name": "pool",
          "type": "address"
        },
        {
          "indexed": false,
          "internalType": "uint256",
          "name": "userNum",
          "type": "uint256"
        },
        {
          "indexed": false,
          "internalType": "uint256",
          "name": "userAmount",
          "type": "uint256"
        }
      ],
      "name": "StakeFT",
      "type": "event"
    },
    {
      "anonymous": false,
      "inputs": [
        {
          "indexed": true,
          "internalType": "address",
          "name": "user",
          "type": "address"
        },
        {
          "indexed": true,
          "internalType": "address",
          "name": "pool",
          "type": "address"
        },
        {
          "indexed": false,
          "internalType": "uint256",
          "name": "userNum",
          "type": "uint256"
        },
        {
          "indexed": false,
          "internalType": "uint256[]",
          "name": "tokenIds",
          "type": "uint256[]"
        }
      ],
      "name": "StakeNFT",
      "type": "event"
    },
    {
      "anonymous": false,
      "inputs": [
        {
          "indexed": true,
          "internalType": "address",
          "name": "user",
          "type": "address"
        },
        {
          "indexed": true,
          "internalType": "address",
          "name": "pool",
          "type": "address"
        },
        {
          "indexed": false,
          "internalType": "uint256[]",
          "name": "tokenIds",
          "type": "uint256[]"
        },
        {
          "indexed": false,
          "internalType": "uint256",
          "name": "totalFee",
          "type": "uint256"
        },
        {
          "indexed": false,
          "internalType": "address",
          "name": "support",
          "type": "address"
        }
      ],
      "name": "SwapFTforNFT",
      "type": "event"
    },
    {
      "anonymous": false,
      "inputs": [
        {
          "indexed": true,
          "internalType": "address",
          "name": "user",
          "type": "address"
        },
        {
          "indexed": true,
          "internalType": "address",
          "name": "pool",
          "type": "address"
        },
        {
          "indexed": false,
          "internalType": "uint256[]",
          "name": "tokenIds",
          "type": "uint256[]"
        },
        {
          "indexed": false,
          "internalType": "uint256",
          "name": "totalFee",
          "type": "uint256"
        },
        {
          "indexed": false,
          "internalType": "address",
          "name": "support",
          "type": "address"
        }
      ],
      "name": "SwapNFTforFT",
      "type": "event"
    },
    {
      "anonymous": false,
      "inputs": [
        {
          "indexed": true,
          "internalType": "address",
          "name": "user",
          "type": "address"
        },
        {
          "indexed": true,
          "internalType": "address",
          "name": "pool",
          "type": "address"
        },
        {
          "indexed": false,
          "internalType": "uint256[]",
          "name": "tokenIds",
          "type": "uint256[]"
        },
        {
          "indexed": false,
          "internalType": "uint256",
          "name": "userNum",
          "type": "uint256"
        },
        {
          "indexed": false,
          "internalType": "uint256",
          "name": "userAmount",
          "type": "uint256"
        },
        {
          "indexed": false,
          "internalType": "uint256",
          "name": "userFee",
          "type": "uint256"
        }
      ],
      "name": "WithdrawFT",
      "type": "event"
    },
    {
      "anonymous": false,
      "inputs": [
        {
          "indexed": true,
          "internalType": "address",
          "name": "user",
          "type": "address"
        },
        {
          "indexed": true,
          "internalType": "address",
          "name": "pool",
          "type": "address"
        },
        {
          "indexed": false,
          "internalType": "uint256[]",
          "name": "tokenIds",
          "type": "uint256[]"
        },
        {
          "indexed": false,
          "internalType": "uint256",
          "name": "userNum",
          "type": "uint256"
        },
        {
          "indexed": false,
          "internalType": "uint256",
          "name": "userFee",
          "type": "uint256"
        }
      ],
      "name": "WithdrawNFT",
      "type": "event"
    },
    {
      "anonymous": false,
      "inputs": [
        {
          "indexed": true,
          "internalType": "address",
          "name": "bondingCurve",
          "type": "address"
        },
        {
          "indexed": false,
          "internalType": "bool",
          "name": "approve",
          "type": "bool"
        }
      ],
      "name": "updateBondingCurve",
      "type": "event"
    },
    {
      "anonymous": false,
      "inputs": [
        {
          "indexed": true,
          "internalType": "address",
          "name": "collection",
          "type": "address"
        },
        {
          "indexed": false,
          "internalType": "bool",
          "name": "approve",
          "type": "bool"
        }
      ],
      "name": "updateCollection",
      "type": "event"
    },
    {
      "anonymous": false,
      "inputs": [
        {
          "indexed": true,
          "internalType": "address",
          "name": "collection",
          "type": "address"
        },
        {
          "indexed": true,
          "internalType": "address",
          "name": "pool",
          "type": "address"
        },
        {
          "indexed": false,
          "internalType": "bool",
          "name": "approve",
          "type": "bool"
        },
        {
          "indexed": false,
          "internalType": "bool",
          "name": "isOtherStake",
          "type": "bool"
        }
      ],
      "name": "updatePool",
      "type": "event"
    },
    {
      "inputs": [
        {
          "internalType": "address[]",
          "name": "_poolList",
          "type": "address[]"
        },
        {
          "internalType": "uint256[]",
          "name": "_userSellNumList",
          "type": "uint256[]"
        }
      ],
      "name": "batchStakeFT",
      "outputs": [],
      "stateMutability": "payable",
      "type": "function"
    },
    {
      "inputs": [
        {
          "internalType": "address[]",
          "name": "_poolList",
          "type": "address[]"
        },
        {
          "components": [
            {
              "internalType": "uint256[]",
              "name": "tokenIds",
              "type": "uint256[]"
            }
          ],
          "internalType": "struct Router.input[]",
          "name": "InputArray",
          "type": "tuple[]"
        }
      ],
      "name": "batchStakeNFT",
      "outputs": [],
      "stateMutability": "nonpayable",
      "type": "function"
    },
    {
      "inputs": [
        {
          "internalType": "address[]",
          "name": "_poolList",
          "type": "address[]"
        },
        {
          "components": [
            {
              "internalType": "uint256[]",
              "name": "tokenIds",
              "type": "uint256[]"
            }
          ],
          "internalType": "struct Router.input[]",
          "name": "InputArray",
          "type": "tuple[]"
        },
        {
          "internalType": "address",
          "name": "_support",
          "type": "address"
        }
      ],
      "name": "batchSwapFTforNFT",
      "outputs": [],
      "stateMutability": "payable",
      "type": "function"
    },
    {
      "inputs": [
        {
          "internalType": "address[]",
          "name": "_poolList",
          "type": "address[]"
        },
        {
          "components": [
            {
              "internalType": "uint256[]",
              "name": "tokenIds",
              "type": "uint256[]"
            }
          ],
          "internalType": "struct Router.input[]",
          "name": "InputArray",
          "type": "tuple[]"
        },
        {
          "internalType": "uint256[]",
          "name": "_minExpects",
          "type": "uint256[]"
        },
        {
          "internalType": "address",
          "name": "_support",
          "type": "address"
        }
      ],
      "name": "batchSwapNFTforFT",
      "outputs": [],
      "stateMutability": "nonpayable",
      "type": "function"
    },
    {
      "inputs": [
        {
          "internalType": "uint256",
          "name": "",
          "type": "uint256"
        }
      ],
      "name": "bondingCurveList",
      "outputs": [
        {
          "internalType": "address",
          "name": "",
          "type": "address"
        }
      ],
      "stateMutability": "view",
      "type": "function"
    },
    {
      "inputs": [
        {
          "internalType": "uint256",
          "name": "",
          "type": "uint256"
        }
      ],
      "name": "collectionList",
      "outputs": [
        {
          "internalType": "address",
          "name": "",
          "type": "address"
        }
      ],
      "stateMutability": "view",
      "type": "function"
    },
    {
      "inputs": [],
      "name": "getBondingCurveList",
      "outputs": [
        {
          "internalType": "address[]",
          "name": "",
          "type": "address[]"
        }
      ],
      "stateMutability": "view",
      "type": "function"
    },
    {
      "inputs": [],
      "name": "getCollectionList",
      "outputs": [
        {
          "internalType": "address[]",
          "name": "",
          "type": "address[]"
        }
      ],
      "stateMutability": "view",
      "type": "function"
    },
    {
      "inputs": [
        {
          "internalType": "address",
          "name": "_collection",
          "type": "address"
        }
      ],
      "name": "getCollectionPoolList",
      "outputs": [
        {
          "internalType": "address[]",
          "name": "",
          "type": "address[]"
        }
      ],
      "stateMutability": "view",
      "type": "function"
    },
    {
      "inputs": [
        {
          "internalType": "address",
          "name": "_bondingCurve",
          "type": "address"
        }
      ],
      "name": "getIsBondingCurveApprove",
      "outputs": [
        {
          "internalType": "bool",
          "name": "",
          "type": "bool"
        }
      ],
      "stateMutability": "view",
      "type": "function"
    },
    {
      "inputs": [
        {
          "internalType": "address",
          "name": "_collection",
          "type": "address"
        }
      ],
      "name": "getIsCollectionApprove",
      "outputs": [
        {
          "internalType": "bool",
          "name": "",
          "type": "bool"
        }
      ],
      "stateMutability": "view",
      "type": "function"
    },
    {
      "inputs": [
        {
          "internalType": "address",
          "name": "_factory",
          "type": "address"
        }
      ],
      "name": "getIsFactoryApprove",
      "outputs": [
        {
          "internalType": "bool",
          "name": "",
          "type": "bool"
        }
      ],
      "stateMutability": "view",
      "type": "function"
    },
    {
      "inputs": [
        {
          "internalType": "address",
          "name": "_supporter",
          "type": "address"
        }
      ],
      "name": "getIsSupporterApprove",
      "outputs": [
        {
          "internalType": "bool",
          "name": "",
          "type": "bool"
        }
      ],
      "stateMutability": "view",
      "type": "function"
    },
    {
      "inputs": [
        {
          "internalType": "address",
          "name": "_user",
          "type": "address"
        }
      ],
      "name": "getUserStakeFTPoolList",
      "outputs": [
        {
          "internalType": "address[]",
          "name": "",
          "type": "address[]"
        }
      ],
      "stateMutability": "view",
      "type": "function"
    },
    {
      "inputs": [
        {
          "internalType": "address",
          "name": "_user",
          "type": "address"
        }
      ],
      "name": "getUserStakeNFTPoolList",
      "outputs": [
        {
          "internalType": "address[]",
          "name": "",
          "type": "address[]"
        }
      ],
      "stateMutability": "view",
      "type": "function"
    },
    {
      "inputs": [],
      "name": "owner",
      "outputs": [
        {
          "internalType": "address",
          "name": "",
          "type": "address"
        }
      ],
      "stateMutability": "view",
      "type": "function"
    },
    {
      "inputs": [],
      "name": "renounceOwnership",
      "outputs": [],
      "stateMutability": "nonpayable",
      "type": "function"
    },
    {
      "inputs": [
        {
          "internalType": "address",
          "name": "_bondingCurve",
          "type": "address"
        },
        {
          "internalType": "bool",
          "name": "_approve",
          "type": "bool"
        }
      ],
      "name": "setBondingCurveApprove",
      "outputs": [],
      "stateMutability": "nonpayable",
      "type": "function"
    },
    {
      "inputs": [
        {
          "internalType": "address",
          "name": "_collection",
          "type": "address"
        },
        {
          "internalType": "bool",
          "name": "_approve",
          "type": "bool"
        }
      ],
      "name": "setCollectionApprove",
      "outputs": [],
      "stateMutability": "nonpayable",
      "type": "function"
    },
    {
      "inputs": [
        {
          "internalType": "address",
          "name": "_pool",
          "type": "address"
        },
        {
          "internalType": "bool",
          "name": "_approve",
          "type": "bool"
        },
        {
          "internalType": "bool",
          "name": "_isOtherStake",
          "type": "bool"
        }
      ],
      "name": "setCollectionPoolList",
      "outputs": [],
      "stateMutability": "nonpayable",
      "type": "function"
    },
    {
      "inputs": [
        {
          "internalType": "address",
          "name": "_factory",
          "type": "address"
        },
        {
          "internalType": "bool",
          "name": "_approve",
          "type": "bool"
        }
      ],
      "name": "setFactory",
      "outputs": [],
      "stateMutability": "nonpayable",
      "type": "function"
    },
    {
      "inputs": [
        {
          "internalType": "address",
          "name": "_pool",
          "type": "address"
        },
        {
          "internalType": "address",
          "name": "_newRouter",
          "type": "address"
        }
      ],
      "name": "setPoolRouter",
      "outputs": [],
      "stateMutability": "nonpayable",
      "type": "function"
    },
    {
      "inputs": [
        {
          "internalType": "address",
          "name": "_supporter",
          "type": "address"
        },
        {
          "internalType": "bool",
          "name": "_approve",
          "type": "bool"
        }
      ],
      "name": "setSupporterApprove",
      "outputs": [],
      "stateMutability": "nonpayable",
      "type": "function"
    },
    {
      "inputs": [
        {
          "internalType": "address",
          "name": "_pool",
          "type": "address"
        },
        {
          "internalType": "uint256",
          "name": "_userSellNum",
          "type": "uint256"
        }
      ],
      "name": "stakeFT",
      "outputs": [],
      "stateMutability": "payable",
      "type": "function"
    },
    {
      "inputs": [
        {
          "internalType": "address",
          "name": "_pool",
          "type": "address"
        },
        {
          "internalType": "uint256[]",
          "name": "_tokenIds",
          "type": "uint256[]"
        }
      ],
      "name": "stakeNFT",
      "outputs": [],
      "stateMutability": "nonpayable",
      "type": "function"
    },
    {
      "inputs": [],
      "name": "supporterFeeRatio",
      "outputs": [
        {
          "internalType": "uint256",
          "name": "",
          "type": "uint256"
        }
      ],
      "stateMutability": "view",
      "type": "function"
    },
    {
      "inputs": [
        {
          "internalType": "address",
          "name": "_pool",
          "type": "address"
        },
        {
          "internalType": "uint256[]",
          "name": "_tokenIds",
          "type": "uint256[]"
        },
        {
          "internalType": "address",
          "name": "_support",
          "type": "address"
        }
      ],
      "name": "swapFTforNFT",
      "outputs": [],
      "stateMutability": "payable",
      "type": "function"
    },
    {
      "inputs": [
        {
          "internalType": "address",
          "name": "_pool",
          "type": "address"
        },
        {
          "internalType": "uint256[]",
          "name": "_tokenIds",
          "type": "uint256[]"
        },
        {
          "internalType": "uint256",
          "name": "_minExpectFee",
          "type": "uint256"
        },
        {
          "internalType": "address",
          "name": "_support",
          "type": "address"
        }
      ],
      "name": "swapNFTforFT",
      "outputs": [],
      "stateMutability": "payable",
      "type": "function"
    },
    {
      "inputs": [],
      "name": "totalFee",
      "outputs": [
        {
          "internalType": "uint256",
          "name": "",
          "type": "uint256"
        }
      ],
      "stateMutability": "view",
      "type": "function"
    },
    {
      "inputs": [],
      "name": "totalProtocolFee",
      "outputs": [
        {
          "internalType": "uint256",
          "name": "",
          "type": "uint256"
        }
      ],
      "stateMutability": "view",
      "type": "function"
    },
    {
      "inputs": [
        {
          "internalType": "address",
          "name": "newOwner",
          "type": "address"
        }
      ],
      "name": "transferOwnership",
      "outputs": [],
      "stateMutability": "nonpayable",
      "type": "function"
    },
    {
      "inputs": [
        {
          "internalType": "address",
          "name": "_pool",
          "type": "address"
        },
        {
          "internalType": "uint256",
          "name": "_userSellNum",
          "type": "uint256"
        },
        {
          "internalType": "uint256[]",
          "name": "_tokenIds",
          "type": "uint256[]"
        }
      ],
      "name": "withdrawFT",
      "outputs": [],
      "stateMutability": "nonpayable",
      "type": "function"
    },
    {
      "inputs": [
        {
          "internalType": "address",
          "name": "_pool",
          "type": "address"
        },
        {
          "internalType": "uint256[]",
          "name": "_tokenIds",
          "type": "uint256[]"
        }
      ],
      "name": "withdrawNFT",
      "outputs": [],
      "stateMutability": "nonpayable",
      "type": "function"
    },
    {
      "inputs": [],
      "name": "withdrawProtocolFee",
      "outputs": [],
      "stateMutability": "payable",
      "type": "function"
    },
    {
      "inputs": [],
      "name": "withdrawSupportFee",
      "outputs": [],
      "stateMutability": "payable",
      "type": "function"
    },
    {
      "stateMutability": "payable",
      "type": "receive"
    }
  ],
  "bytecode": "0x60806040526703782dace9d900006003553480156200001d57600080fd5b506200003e620000326200004460201b60201c565b6200004c60201b60201c565b62000110565b600033905090565b60008060009054906101000a900473ffffffffffffffffffffffffffffffffffffffff169050816000806101000a81548173ffffffffffffffffffffffffffffffffffffffff021916908373ffffffffffffffffffffffffffffffffffffffff1602179055508173ffffffffffffffffffffffffffffffffffffffff168173ffffffffffffffffffffffffffffffffffffffff167f8be0079c531659141344cd1fd0a4f28419497f9722a3daafe3b4186f6b6457e060405160405180910390a35050565b61482b80620001206000396000f3fe6080604052600436106102085760003560e01c806388611f3511610118578063bdb9c604116100a0578063ec217ea61161006f578063ec217ea61461072f578063f2fde38b1461076c578063fc5a0df514610795578063fc9d16cd146107d2578063fd7bb9b5146107fb57610248565b8063bdb9c60414610691578063cab5c30e146106ba578063dd4b533f146106d6578063e3b4403d146106f257610248565b80639bdedea5116100e75780639bdedea5146105a7578063a7b60297146105d0578063b65bfbf01461060d578063b693febb1461064a578063bc0a0bd01461066657610248565b806388611f35146104ff5780638d3b6eb31461052a5780638da5cb5b146105535780639175a5881461057e57610248565b80634906a2a81161019b578063715018a61161016a578063715018a614610408578063752d121c1461041f578063779f15831461045c5780637bcea364146104855780637c1dff22146104c257610248565b80634906a2a81461036d57806359d8da92146103985780636a64d3d2146103a257806371013c10146103df57610248565b80631df4ccfc116101d75780631df4ccfc146102c55780632e091d53146102f0578063361eaa531461031957806338e8a1d11461034457610248565b80631296a4261461024d57806312b71c21146102695780631824d4391461027357806318892c5d1461029c57610248565b36610248577f88a5966d370b9919b20f3e2c13ff65706f196a4e32cc2c12bf57088f88525874333460405161023e929190613638565b60405180910390a1005b600080fd5b61026760048036038101906102629190613730565b610817565b005b610271610c56565b005b34801561027f57600080fd5b5061029a600480360381019061029591906137dd565b610db5565b005b3480156102a857600080fd5b506102c360048036038101906102be9190613873565b610e2c565b005b3480156102d157600080fd5b506102da6111c4565b6040516102e7919061393c565b60405180910390f35b3480156102fc57600080fd5b5061031760048036038101906103129190613957565b6111ca565b005b34801561032557600080fd5b5061032e611478565b60405161033b9190613a96565b60405180910390f35b34801561035057600080fd5b5061036b60048036038101906103669190613af0565b611506565b005b34801561037957600080fd5b50610382611569565b60405161038f9190613a96565b60405180910390f35b6103a06115f7565b005b3480156103ae57600080fd5b506103c960048036038101906103c49190613b30565b611658565b6040516103d69190613b6c565b60405180910390f35b3480156103eb57600080fd5b5061040660048036038101906104019190613af0565b6116ae565b005b34801561041457600080fd5b5061041d611711565b005b34801561042b57600080fd5b5061044660048036038101906104419190613bb3565b611725565b6040516104539190613be0565b60405180910390f35b34801561046857600080fd5b50610483600480360381019061047e9190613bfb565b611764565b005b34801561049157600080fd5b506104ac60048036038101906104a79190613b30565b611956565b6040516104b99190613a96565b60405180910390f35b3480156104ce57600080fd5b506104e960048036038101906104e49190613b30565b611a23565b6040516104f69190613a96565b60405180910390f35b34801561050b57600080fd5b50610514611af0565b604051610521919061393c565b60405180910390f35b34801561053657600080fd5b50610551600480360381019061054c9190613af0565b611af6565b005b34801561055f57600080fd5b50610568611c89565b6040516105759190613be0565b60405180910390f35b34801561058a57600080fd5b506105a560048036038101906105a09190613c6f565b611cb2565b005b3480156105b357600080fd5b506105ce60048036038101906105c99190613c6f565b611e32565b005b3480156105dc57600080fd5b506105f760048036038101906105f29190613bb3565b61201f565b6040516106049190613be0565b60405180910390f35b34801561061957600080fd5b50610634600480360381019061062f9190613b30565b61205e565b6040516106419190613b6c565b60405180910390f35b610664600480360381019061065f9190613ccf565b6120b4565b005b34801561067257600080fd5b5061067b61239a565b604051610688919061393c565b60405180910390f35b34801561069d57600080fd5b506106b860048036038101906106b39190613d0f565b6123a0565b005b6106d460048036038101906106cf9190613d62565b612623565b005b6106f060048036038101906106eb9190613dd6565b612836565b005b3480156106fe57600080fd5b5061071960048036038101906107149190613b30565b612a4b565b6040516107269190613a96565b60405180910390f35b34801561073b57600080fd5b5061075660048036038101906107519190613b30565b612b18565b6040516107639190613b6c565b60405180910390f35b34801561077857600080fd5b50610793600480360381019061078e9190613b30565b612b6e565b005b3480156107a157600080fd5b506107bc60048036038101906107b79190613b30565b612bf1565b6040516107c99190613b6c565b60405180910390f35b3480156107de57600080fd5b506107f960048036038101906107f49190613af0565b612c47565b005b61081560048036038101906108109190613e5e565b612dda565b005b60005b84849050811015610c4f57600085858381811061083a57610839613ef3565b5b905060200201602081019061084f9190613b30565b73ffffffffffffffffffffffffffffffffffffffff166360246c886040518163ffffffff1660e01b815260040160c0604051808303816000875af115801561089b573d6000803e3d6000fd5b505050506040513d601f19601f820116820180604052508101906108bf91906140c5565b905060008686848181106108d6576108d5613ef3565b5b90506020020160208101906108eb9190613b30565b73ffffffffffffffffffffffffffffffffffffffff16637b6880ca6040518163ffffffff1660e01b81526004016020604051808303816000875af1158015610937573d6000803e3d6000fd5b505050506040513d601f19601f8201168201806040525081019061095b91906140f2565b9050600087878581811061097257610971613ef3565b5b90506020020160208101906109879190613b30565b73ffffffffffffffffffffffffffffffffffffffff1663cb31fa828787878181106109b5576109b4613ef3565b5b90506020020135846040518363ffffffff1660e01b81526004016109da92919061412e565b602060405180830381865afa1580156109f7573d6000803e3d6000fd5b505050506040513d601f19601f82011682018060405250810190610a1b9190614157565b9050600960003373ffffffffffffffffffffffffffffffffffffffff1673ffffffffffffffffffffffffffffffffffffffff168152602001908152602001600020888886818110610a6f57610a6e613ef3565b5b9050602002016020810190610a849190613b30565b9080600181540180825580915050600190039060005260206000200160009091909190916101000a81548173ffffffffffffffffffffffffffffffffffffffff021916908373ffffffffffffffffffffffffffffffffffffffff160217905550878785818110610af757610af6613ef3565b5b9050602002016020810190610b0c9190613b30565b73ffffffffffffffffffffffffffffffffffffffff1663a09bf8c282888888818110610b3b57610b3a613ef3565b5b90506020020135336040518463ffffffff1660e01b8152600401610b60929190614184565b6000604051808303818588803b158015610b7957600080fd5b505af1158015610b8d573d6000803e3d6000fd5b5050505050878785818110610ba557610ba4613ef3565b5b9050602002016020810190610bba9190613b30565b73ffffffffffffffffffffffffffffffffffffffff163373ffffffffffffffffffffffffffffffffffffffff167f39feb2a23d1a328f05ec9c6c1814935f849cc7d514d36093ee78f6083b6a39bc888888818110610c1b57610c1a613ef3565b5b9050602002013584604051610c319291906141ad565b60405180910390a35050508080610c4790614205565b91505061081a565b5050505050565b600c60003373ffffffffffffffffffffffffffffffffffffffff1673ffffffffffffffffffffffffffffffffffffffff16815260200190815260200160002060009054906101000a900460ff16610ce2576040517f08c379a0000000000000000000000000000000000000000000000000000000008152600401610cd9906142aa565b60405180910390fd5b6000600b60003373ffffffffffffffffffffffffffffffffffffffff1673ffffffffffffffffffffffffffffffffffffffff1681526020019081526020016000205490506000600b60003373ffffffffffffffffffffffffffffffffffffffff1673ffffffffffffffffffffffffffffffffffffffff168152602001908152602001600020819055503373ffffffffffffffffffffffffffffffffffffffff166108fc829081150290604051600060405180830381858888f19350505050158015610db1573d6000803e3d6000fd5b5050565b610dbd613156565b8173ffffffffffffffffffffffffffffffffffffffff1663c0d78655826040518263ffffffff1660e01b8152600401610df69190613be0565b600060405180830381600087803b158015610e1057600080fd5b505af1158015610e24573d6000803e3d6000fd5b505050505050565b600080600090505b8888905081101561119b576000898983818110610e5457610e53613ef3565b5b9050602002016020810190610e699190613b30565b73ffffffffffffffffffffffffffffffffffffffff166360246c886040518163ffffffff1660e01b815260040160c0604051808303816000875af1158015610eb5573d6000803e3d6000fd5b505050506040513d601f19601f82011682018060405250810190610ed991906140c5565b905060008a8a84818110610ef057610eef613ef3565b5b9050602002016020810190610f059190613b30565b73ffffffffffffffffffffffffffffffffffffffff1663cb31fa828a8a86818110610f3357610f32613ef3565b5b9050602002810190610f4591906142d9565b8060000190610f549190614301565b905084602001516040518363ffffffff1660e01b8152600401610f7892919061412e565b602060405180830381865afa158015610f95573d6000803e3d6000fd5b505050506040513d601f19601f82011682018060405250810190610fb99190614157565b905060008b8b85818110610fd057610fcf613ef3565b5b9050602002016020810190610fe59190613b30565b73ffffffffffffffffffffffffffffffffffffffff1663244117b48b8b8781811061101357611012613ef3565b5b905060200281019061102591906142d9565b80600001906110349190614301565b8b8b8981811061104757611046613ef3565b5b90506020020135336040518563ffffffff1660e01b815260040161106e94939291906143df565b6020604051808303816000875af115801561108d573d6000803e3d6000fd5b505050506040513d601f19601f820116820180604052508101906110b19190614157565b905080856110bf919061441f565b94508b8b858181106110d4576110d3613ef3565b5b90506020020160208101906110e99190613b30565b73ffffffffffffffffffffffffffffffffffffffff163373ffffffffffffffffffffffffffffffffffffffff167f8f3673bd023cc34f252b9e7d0a0dd6496592b87006673a974d1d621b5a93e15e8c8c8881811061114a57611149613ef3565b5b905060200281019061115c91906142d9565b806000019061116b9190614301565b868b60405161117d94939291906143df565b60405180910390a3505050808061119390614205565b915050610e34565b506000806111a8836131d4565b915091506111b88383868461320b565b50505050505050505050565b60025481565b60005b8484905081101561147157600860003373ffffffffffffffffffffffffffffffffffffffff1673ffffffffffffffffffffffffffffffffffffffff16815260200190815260200160002085858381811061122a57611229613ef3565b5b905060200201602081019061123f9190613b30565b9080600181540180825580915050600190039060005260206000200160009091909190916101000a81548173ffffffffffffffffffffffffffffffffffffffff021916908373ffffffffffffffffffffffffffffffffffffffff1602179055508484828181106112b2576112b1613ef3565b5b90506020020160208101906112c79190613b30565b73ffffffffffffffffffffffffffffffffffffffff16632f7e0b2e8484848181106112f5576112f4613ef3565b5b905060200281019061130791906142d9565b80600001906113169190614301565b336040518463ffffffff1660e01b815260040161133593929190614453565b600060405180830381600087803b15801561134f57600080fd5b505af1158015611363573d6000803e3d6000fd5b5050505084848281811061137a57611379613ef3565b5b905060200201602081019061138f9190613b30565b73ffffffffffffffffffffffffffffffffffffffff163373ffffffffffffffffffffffffffffffffffffffff167f285e2df175d03ce53bf542c949e8a0add3b654d3911402bbb71e9bb46c82dad58585858181106113f0576113ef613ef3565b5b905060200281019061140291906142d9565b80600001906114119190614301565b905086868681811061142657611425613ef3565b5b905060200281019061143891906142d9565b80600001906114479190614301565b60405161145693929190614485565b60405180910390a3808061146990614205565b9150506111cd565b5050505050565b606060058054806020026020016040519081016040528092919081815260200182805480156114fc57602002820191906000526020600020905b8160009054906101000a900473ffffffffffffffffffffffffffffffffffffffff1673ffffffffffffffffffffffffffffffffffffffff16815260200190600101908083116114b2575b5050505050905090565b61150e613156565b80600c60008473ffffffffffffffffffffffffffffffffffffffff1673ffffffffffffffffffffffffffffffffffffffff16815260200190815260200160002060006101000a81548160ff0219169083151502179055505050565b606060048054806020026020016040519081016040528092919081815260200182805480156115ed57602002820191906000526020600020905b8160009054906101000a900473ffffffffffffffffffffffffffffffffffffffff1673ffffffffffffffffffffffffffffffffffffffff16815260200190600101908083116115a3575b5050505050905090565b6115ff613156565b6000600154905060006001819055503373ffffffffffffffffffffffffffffffffffffffff166108fc829081150290604051600060405180830381858888f19350505050158015611654573d6000803e3d6000fd5b5050565b6000600c60008373ffffffffffffffffffffffffffffffffffffffff1673ffffffffffffffffffffffffffffffffffffffff16815260200190815260200160002060009054906101000a900460ff169050919050565b6116b6613156565b80600d60008473ffffffffffffffffffffffffffffffffffffffff1673ffffffffffffffffffffffffffffffffffffffff16815260200190815260200160002060006101000a81548160ff0219169083151502179055505050565b611719613156565b6117236000613299565b565b6005818154811061173557600080fd5b906000526020600020016000915054906101000a900473ffffffffffffffffffffffffffffffffffffffff1681565b60008473ffffffffffffffffffffffffffffffffffffffff16636386c1c7336040518263ffffffff1660e01b815260040161179f9190613be0565b60a0604051808303816000875af11580156117be573d6000803e3d6000fd5b505050506040513d601f19601f820116820180604052508101906117e29190614543565b905060008573ffffffffffffffffffffffffffffffffffffffff16636b469d39336040518263ffffffff1660e01b815260040161181f9190613be0565b602060405180830381865afa15801561183c573d6000803e3d6000fd5b505050506040513d601f19601f820116820180604052508101906118609190614157565b905061186c338761335d565b8573ffffffffffffffffffffffffffffffffffffffff166350902c17868686336040518563ffffffff1660e01b81526004016118ab9493929190614570565b600060405180830381600087803b1580156118c557600080fd5b505af11580156118d9573d6000803e3d6000fd5b505050508573ffffffffffffffffffffffffffffffffffffffff163373ffffffffffffffffffffffffffffffffffffffff167f38509f732bb9449e12686234757304da4b853110ebc8ece9a12bba31a4fcb91b8686898760400151876040516119469594939291906145b0565b60405180910390a3505050505050565b6060600860008373ffffffffffffffffffffffffffffffffffffffff1673ffffffffffffffffffffffffffffffffffffffff168152602001908152602001600020805480602002602001604051908101604052809291908181526020018280548015611a1757602002820191906000526020600020905b8160009054906101000a900473ffffffffffffffffffffffffffffffffffffffff1673ffffffffffffffffffffffffffffffffffffffff16815260200190600101908083116119cd575b50505050509050919050565b6060600960008373ffffffffffffffffffffffffffffffffffffffff1673ffffffffffffffffffffffffffffffffffffffff168152602001908152602001600020805480602002602001604051908101604052809291908181526020018280548015611ae457602002820191906000526020600020905b8160009054906101000a900473ffffffffffffffffffffffffffffffffffffffff1673ffffffffffffffffffffffffffffffffffffffff1681526020019060010190808311611a9a575b50505050509050919050565b60015481565b611afe613156565b6001151581151503611bc9576004829080600181540180825580915050600190039060005260206000200160009091909190916101000a81548173ffffffffffffffffffffffffffffffffffffffff021916908373ffffffffffffffffffffffffffffffffffffffff16021790555080600a60008473ffffffffffffffffffffffffffffffffffffffff1673ffffffffffffffffffffffffffffffffffffffff16815260200190815260200160002060006101000a81548160ff021916908315150217905550611c37565b6000151581151503611c3657611bde826133a9565b80600a60008473ffffffffffffffffffffffffffffffffffffffff1673ffffffffffffffffffffffffffffffffffffffff16815260200190815260200160002060006101000a81548160ff0219169083151502179055505b5b8173ffffffffffffffffffffffffffffffffffffffff167f0cf32eb39d41134adb49689dcf5cccb7fea353cdbf14b33d836533b457e4edbc82604051611c7d9190613b6c565b60405180910390a25050565b60008060009054906101000a900473ffffffffffffffffffffffffffffffffffffffff16905090565b600860003373ffffffffffffffffffffffffffffffffffffffff1673ffffffffffffffffffffffffffffffffffffffff168152602001908152602001600020839080600181540180825580915050600190039060005260206000200160009091909190916101000a81548173ffffffffffffffffffffffffffffffffffffffff021916908373ffffffffffffffffffffffffffffffffffffffff1602179055508273ffffffffffffffffffffffffffffffffffffffff16632f7e0b2e8383336040518463ffffffff1660e01b8152600401611d8f93929190614453565b600060405180830381600087803b158015611da957600080fd5b505af1158015611dbd573d6000803e3d6000fd5b505050508273ffffffffffffffffffffffffffffffffffffffff163373ffffffffffffffffffffffffffffffffffffffff167f285e2df175d03ce53bf542c949e8a0add3b654d3911402bbb71e9bb46c82dad5848490508585604051611e2593929190614485565b60405180910390a3505050565b60008373ffffffffffffffffffffffffffffffffffffffff16636386c1c7336040518263ffffffff1660e01b8152600401611e6d9190613be0565b60a0604051808303816000875af1158015611e8c573d6000803e3d6000fd5b505050506040513d601f19601f82011682018060405250810190611eb09190614543565b905060008473ffffffffffffffffffffffffffffffffffffffff1663cb6f0d34336040518263ffffffff1660e01b8152600401611eed9190613be0565b602060405180830381865afa158015611f0a573d6000803e3d6000fd5b505050506040513d601f19601f82011682018060405250810190611f2e9190614157565b9050611f3a33866133b7565b8473ffffffffffffffffffffffffffffffffffffffff16632c7e49158585336040518463ffffffff1660e01b8152600401611f7793929190614453565b600060405180830381600087803b158015611f9157600080fd5b505af1158015611fa5573d6000803e3d6000fd5b505050508473ffffffffffffffffffffffffffffffffffffffff163373ffffffffffffffffffffffffffffffffffffffff167f758b8b45d172370c222fe8b7156d4c6f1367f8676604a31e2ac73311b192b1e6868686600001518660405161201094939291906145fe565b60405180910390a35050505050565b6004818154811061202f57600080fd5b906000526020600020016000915054906101000a900473ffffffffffffffffffffffffffffffffffffffff1681565b6000600a60008373ffffffffffffffffffffffffffffffffffffffff1673ffffffffffffffffffffffffffffffffffffffff16815260200190815260200160002060009054906101000a900460ff169050919050565b60008273ffffffffffffffffffffffffffffffffffffffff166360246c886040518163ffffffff1660e01b815260040160c0604051808303816000875af1158015612103573d6000803e3d6000fd5b505050506040513d601f19601f8201168201806040525081019061212791906140c5565b905060008373ffffffffffffffffffffffffffffffffffffffff16637b6880ca6040518163ffffffff1660e01b81526004016020604051808303816000875af1158015612178573d6000803e3d6000fd5b505050506040513d601f19601f8201168201806040525081019061219c91906140f2565b905060008473ffffffffffffffffffffffffffffffffffffffff1663cb31fa8285846040518363ffffffff1660e01b81526004016121db92919061412e565b602060405180830381865afa1580156121f8573d6000803e3d6000fd5b505050506040513d601f19601f8201168201806040525081019061221c9190614157565b9050600960003373ffffffffffffffffffffffffffffffffffffffff1673ffffffffffffffffffffffffffffffffffffffff168152602001908152602001600020859080600181540180825580915050600190039060005260206000200160009091909190916101000a81548173ffffffffffffffffffffffffffffffffffffffff021916908373ffffffffffffffffffffffffffffffffffffffff1602179055508473ffffffffffffffffffffffffffffffffffffffff1663a09bf8c28286336040518463ffffffff1660e01b81526004016122fa929190614184565b6000604051808303818588803b15801561231357600080fd5b505af1158015612327573d6000803e3d6000fd5b50505050508473ffffffffffffffffffffffffffffffffffffffff163373ffffffffffffffffffffffffffffffffffffffff167f39feb2a23d1a328f05ec9c6c1814935f849cc7d514d36093ee78f6083b6a39bc868460405161238b9291906141ad565b60405180910390a35050505050565b60035481565b6123a8611c89565b73ffffffffffffffffffffffffffffffffffffffff163373ffffffffffffffffffffffffffffffffffffffff161480612431575060011515600d60003373ffffffffffffffffffffffffffffffffffffffff1673ffffffffffffffffffffffffffffffffffffffff16815260200190815260200160002060009054906101000a900460ff161515145b61243a57600080fd5b60008373ffffffffffffffffffffffffffffffffffffffff16637de1e5366040518163ffffffff1660e01b81526004016020604051808303816000875af1158015612489573d6000803e3d6000fd5b505050506040513d601f19601f820116820180604052508101906124ad919061463e565b9050600115158315150361256057600660008273ffffffffffffffffffffffffffffffffffffffff1673ffffffffffffffffffffffffffffffffffffffff168152602001908152602001600020849080600181540180825580915050600190039060005260206000200160009091909190916101000a81548173ffffffffffffffffffffffffffffffffffffffff021916908373ffffffffffffffffffffffffffffffffffffffff1602179055506125b6565b60001515831515036125b5576125b4600660008373ffffffffffffffffffffffffffffffffffffffff1673ffffffffffffffffffffffffffffffffffffffff16815260200190815260200160002085613403565b5b5b8373ffffffffffffffffffffffffffffffffffffffff168173ffffffffffffffffffffffffffffffffffffffff167f8e1348596231b3124f3fa3297a182ccd30d26f1bc72237136f09fcf612ceb759858560405161261592919061466b565b60405180910390a350505050565b60008473ffffffffffffffffffffffffffffffffffffffff166360246c886040518163ffffffff1660e01b815260040160c0604051808303816000875af1158015612672573d6000803e3d6000fd5b505050506040513d601f19601f8201168201806040525081019061269691906140c5565b905060008573ffffffffffffffffffffffffffffffffffffffff1663531fb11d8686905084602001516040518363ffffffff1660e01b81526004016126dc92919061412e565b602060405180830381865afa1580156126f9573d6000803e3d6000fd5b505050506040513d601f19601f8201168201806040525081019061271d9190614157565b905060008673ffffffffffffffffffffffffffffffffffffffff16634c4cbac4348888336040518563ffffffff1660e01b815260040161275f93929190614453565b60206040518083038185885af115801561277d573d6000803e3d6000fd5b50505050506040513d601f19601f820116820180604052508101906127a29190614157565b90506000806127b0836131d4565b915091506127c08383888461320b565b8873ffffffffffffffffffffffffffffffffffffffff163373ffffffffffffffffffffffffffffffffffffffff167f2611defd53a4a87419d2078554db30aeaddd9ddfdc5990da2bbdc8d589f5e4d68a8a888b60405161282394939291906143df565b60405180910390a3505050505050505050565b60008573ffffffffffffffffffffffffffffffffffffffff166360246c886040518163ffffffff1660e01b815260040160c0604051808303816000875af1158015612885573d6000803e3d6000fd5b505050506040513d601f19601f820116820180604052508101906128a991906140c5565b905060008673ffffffffffffffffffffffffffffffffffffffff1663cb31fa828787905084602001516040518363ffffffff1660e01b81526004016128ef92919061412e565b602060405180830381865afa15801561290c573d6000803e3d6000fd5b505050506040513d601f19601f820116820180604052508101906129309190614157565b905060008773ffffffffffffffffffffffffffffffffffffffff1663244117b4888888336040518563ffffffff1660e01b815260040161297394939291906143df565b6020604051808303816000875af1158015612992573d6000803e3d6000fd5b505050506040513d601f19601f820116820180604052508101906129b69190614157565b90506000806129c4836131d4565b915091506129d48383888461320b565b8973ffffffffffffffffffffffffffffffffffffffff163373ffffffffffffffffffffffffffffffffffffffff167f8f3673bd023cc34f252b9e7d0a0dd6496592b87006673a974d1d621b5a93e15e8b8b888b604051612a3794939291906143df565b60405180910390a350505050505050505050565b6060600660008373ffffffffffffffffffffffffffffffffffffffff1673ffffffffffffffffffffffffffffffffffffffff168152602001908152602001600020805480602002602001604051908101604052809291908181526020018280548015612b0c57602002820191906000526020600020905b8160009054906101000a900473ffffffffffffffffffffffffffffffffffffffff1673ffffffffffffffffffffffffffffffffffffffff1681526020019060010190808311612ac2575b50505050509050919050565b6000600d60008373ffffffffffffffffffffffffffffffffffffffff1673ffffffffffffffffffffffffffffffffffffffff16815260200190815260200160002060009054906101000a900460ff169050919050565b612b76613156565b600073ffffffffffffffffffffffffffffffffffffffff168173ffffffffffffffffffffffffffffffffffffffff1603612be5576040517f08c379a0000000000000000000000000000000000000000000000000000000008152600401612bdc90614706565b60405180910390fd5b612bee81613299565b50565b6000600760008373ffffffffffffffffffffffffffffffffffffffff1673ffffffffffffffffffffffffffffffffffffffff16815260200190815260200160002060009054906101000a900460ff169050919050565b612c4f613156565b6001151581151503612d1a576005829080600181540180825580915050600190039060005260206000200160009091909190916101000a81548173ffffffffffffffffffffffffffffffffffffffff021916908373ffffffffffffffffffffffffffffffffffffffff16021790555080600760008473ffffffffffffffffffffffffffffffffffffffff1673ffffffffffffffffffffffffffffffffffffffff16815260200190815260200160002060006101000a81548160ff021916908315150217905550612d88565b6000151581151503612d8757612d2f826135a4565b80600760008473ffffffffffffffffffffffffffffffffffffffff1673ffffffffffffffffffffffffffffffffffffffff16815260200190815260200160002060006101000a81548160ff0219169083151502179055505b5b8173ffffffffffffffffffffffffffffffffffffffff167fd2314d3c4ed79a065c44190bc2e452494e14b04eec0bd90d3afcabece59e21d682604051612dce9190613b6c565b60405180910390a25050565b600080600090505b8686905081101561312f576000878783818110612e0257612e01613ef3565b5b9050602002016020810190612e179190613b30565b73ffffffffffffffffffffffffffffffffffffffff166360246c886040518163ffffffff1660e01b815260040160c0604051808303816000875af1158015612e63573d6000803e3d6000fd5b505050506040513d601f19601f82011682018060405250810190612e8791906140c5565b90506000888884818110612e9e57612e9d613ef3565b5b9050602002016020810190612eb39190613b30565b73ffffffffffffffffffffffffffffffffffffffff1663531fb11d888886818110612ee157612ee0613ef3565b5b9050602002810190612ef391906142d9565b8060000190612f029190614301565b905084602001516040518363ffffffff1660e01b8152600401612f2692919061412e565b602060405180830381865afa158015612f43573d6000803e3d6000fd5b505050506040513d601f19601f82011682018060405250810190612f679190614157565b90506000898985818110612f7e57612f7d613ef3565b5b9050602002016020810190612f939190613b30565b73ffffffffffffffffffffffffffffffffffffffff16634c4cbac4838a8a88818110612fc257612fc1613ef3565b5b9050602002810190612fd491906142d9565b8060000190612fe39190614301565b336040518563ffffffff1660e01b815260040161300293929190614453565b60206040518083038185885af1158015613020573d6000803e3d6000fd5b50505050506040513d601f19601f820116820180604052508101906130459190614157565b90508085613053919061441f565b945089898581811061306857613067613ef3565b5b905060200201602081019061307d9190613b30565b73ffffffffffffffffffffffffffffffffffffffff163373ffffffffffffffffffffffffffffffffffffffff167f2611defd53a4a87419d2078554db30aeaddd9ddfdc5990da2bbdc8d589f5e4d68a8a888181106130de576130dd613ef3565b5b90506020028101906130f091906142d9565b80600001906130ff9190614301565b868b60405161311194939291906143df565b60405180910390a3505050808061312790614205565b915050612de2565b5060008061313c836131d4565b9150915061314c8383868461320b565b5050505050505050565b61315e6135b2565b73ffffffffffffffffffffffffffffffffffffffff1661317c611c89565b73ffffffffffffffffffffffffffffffffffffffff16146131d2576040517f08c379a00000000000000000000000000000000000000000000000000000000081526004016131c990614772565b60405180910390fd5b565b6000806131f6600354670de0b6b3a7640000856135ba9092919063ffffffff16565b905080836132049190614792565b9150915091565b836002600082825461321d919061441f565b925050819055508260016000828254613236919061441f565b9250508190555080600b60008473ffffffffffffffffffffffffffffffffffffffff1673ffffffffffffffffffffffffffffffffffffffff168152602001908152602001600020600082825461328c919061441f565b9250508190555050505050565b60008060009054906101000a900473ffffffffffffffffffffffffffffffffffffffff169050816000806101000a81548173ffffffffffffffffffffffffffffffffffffffff021916908373ffffffffffffffffffffffffffffffffffffffff1602179055508173ffffffffffffffffffffffffffffffffffffffff168173ffffffffffffffffffffffffffffffffffffffff167f8be0079c531659141344cd1fd0a4f28419497f9722a3daafe3b4186f6b6457e060405160405180910390a35050565b6133a5600960008473ffffffffffffffffffffffffffffffffffffffff1673ffffffffffffffffffffffffffffffffffffffff16815260200190815260200160002082613403565b5050565b6133b4600482613403565b50565b6133ff600860008473ffffffffffffffffffffffffffffffffffffffff1673ffffffffffffffffffffffffffffffffffffffff16815260200190815260200160002082613403565b5050565b60008280549050905060005b8181101561359e578273ffffffffffffffffffffffffffffffffffffffff1684828154811061344157613440613ef3565b5b9060005260206000200160009054906101000a900473ffffffffffffffffffffffffffffffffffffffff1673ffffffffffffffffffffffffffffffffffffffff160361358b576001826134949190614792565b811461354057836001836134a89190614792565b815481106134b9576134b8613ef3565b5b9060005260206000200160009054906101000a900473ffffffffffffffffffffffffffffffffffffffff168482815481106134f7576134f6613ef3565b5b9060005260206000200160006101000a81548173ffffffffffffffffffffffffffffffffffffffff021916908373ffffffffffffffffffffffffffffffffffffffff1602179055505b83805480613551576135506147c6565b5b6001900381819060005260206000200160006101000a81549073ffffffffffffffffffffffffffffffffffffffff0219169055905561359e565b808061359690614205565b91505061340f565b50505050565b6135af600582613403565b50565b600033905090565b6000828402905082848204148415176135d257600080fd5b81810490509392505050565b600073ffffffffffffffffffffffffffffffffffffffff82169050919050565b6000613609826135de565b9050919050565b613619816135fe565b82525050565b6000819050919050565b6136328161361f565b82525050565b600060408201905061364d6000830185613610565b61365a6020830184613629565b9392505050565b6000604051905090565b600080fd5b600080fd5b600080fd5b600080fd5b600080fd5b60008083601f84011261369a57613699613675565b5b8235905067ffffffffffffffff8111156136b7576136b661367a565b5b6020830191508360208202830111156136d3576136d261367f565b5b9250929050565b60008083601f8401126136f0576136ef613675565b5b8235905067ffffffffffffffff81111561370d5761370c61367a565b5b6020830191508360208202830111156137295761372861367f565b5b9250929050565b6000806000806040858703121561374a5761374961366b565b5b600085013567ffffffffffffffff81111561376857613767613670565b5b61377487828801613684565b9450945050602085013567ffffffffffffffff81111561379757613796613670565b5b6137a3878288016136da565b925092505092959194509250565b6137ba816135fe565b81146137c557600080fd5b50565b6000813590506137d7816137b1565b92915050565b600080604083850312156137f4576137f361366b565b5b6000613802858286016137c8565b9250506020613813858286016137c8565b9150509250929050565b60008083601f84011261383357613832613675565b5b8235905067ffffffffffffffff8111156138505761384f61367a565b5b60208301915083602082028301111561386c5761386b61367f565b5b9250929050565b60008060008060008060006080888a0312156138925761389161366b565b5b600088013567ffffffffffffffff8111156138b0576138af613670565b5b6138bc8a828b01613684565b9750975050602088013567ffffffffffffffff8111156138df576138de613670565b5b6138eb8a828b0161381d565b9550955050604088013567ffffffffffffffff81111561390e5761390d613670565b5b61391a8a828b016136da565b9350935050606061392d8a828b016137c8565b91505092959891949750929550565b60006020820190506139516000830184613629565b92915050565b600080600080604085870312156139715761397061366b565b5b600085013567ffffffffffffffff81111561398f5761398e613670565b5b61399b87828801613684565b9450945050602085013567ffffffffffffffff8111156139be576139bd613670565b5b6139ca8782880161381d565b925092505092959194509250565b600081519050919050565b600082825260208201905092915050565b6000819050602082019050919050565b613a0d816135fe565b82525050565b6000613a1f8383613a04565b60208301905092915050565b6000602082019050919050565b6000613a43826139d8565b613a4d81856139e3565b9350613a58836139f4565b8060005b83811015613a89578151613a708882613a13565b9750613a7b83613a2b565b925050600181019050613a5c565b5085935050505092915050565b60006020820190508181036000830152613ab08184613a38565b905092915050565b60008115159050919050565b613acd81613ab8565b8114613ad857600080fd5b50565b600081359050613aea81613ac4565b92915050565b60008060408385031215613b0757613b0661366b565b5b6000613b15858286016137c8565b9250506020613b2685828601613adb565b9150509250929050565b600060208284031215613b4657613b4561366b565b5b6000613b54848285016137c8565b91505092915050565b613b6681613ab8565b82525050565b6000602082019050613b816000830184613b5d565b92915050565b613b908161361f565b8114613b9b57600080fd5b50565b600081359050613bad81613b87565b92915050565b600060208284031215613bc957613bc861366b565b5b6000613bd784828501613b9e565b91505092915050565b6000602082019050613bf56000830184613610565b92915050565b60008060008060608587031215613c1557613c1461366b565b5b6000613c23878288016137c8565b9450506020613c3487828801613b9e565b935050604085013567ffffffffffffffff811115613c5557613c54613670565b5b613c61878288016136da565b925092505092959194509250565b600080600060408486031215613c8857613c8761366b565b5b6000613c96868287016137c8565b935050602084013567ffffffffffffffff811115613cb757613cb6613670565b5b613cc3868287016136da565b92509250509250925092565b60008060408385031215613ce657613ce561366b565b5b6000613cf4858286016137c8565b9250506020613d0585828601613b9e565b9150509250929050565b600080600060608486031215613d2857613d2761366b565b5b6000613d36868287016137c8565b9350506020613d4786828701613adb565b9250506040613d5886828701613adb565b9150509250925092565b60008060008060608587031215613d7c57613d7b61366b565b5b6000613d8a878288016137c8565b945050602085013567ffffffffffffffff811115613dab57613daa613670565b5b613db7878288016136da565b93509350506040613dca878288016137c8565b91505092959194509250565b600080600080600060808688031215613df257613df161366b565b5b6000613e00888289016137c8565b955050602086013567ffffffffffffffff811115613e2157613e20613670565b5b613e2d888289016136da565b94509450506040613e4088828901613b9e565b9250506060613e51888289016137c8565b9150509295509295909350565b600080600080600060608688031215613e7a57613e7961366b565b5b600086013567ffffffffffffffff811115613e9857613e97613670565b5b613ea488828901613684565b9550955050602086013567ffffffffffffffff811115613ec757613ec6613670565b5b613ed38882890161381d565b93509350506040613ee6888289016137c8565b9150509295509295909350565b7f4e487b7100000000000000000000000000000000000000000000000000000000600052603260045260246000fd5b600080fd5b6000601f19601f8301169050919050565b7f4e487b7100000000000000000000000000000000000000000000000000000000600052604160045260246000fd5b613f7082613f27565b810181811067ffffffffffffffff82111715613f8f57613f8e613f38565b5b80604052505050565b6000613fa2613661565b9050613fae8282613f67565b919050565b600081519050613fc2816137b1565b92915050565b60006fffffffffffffffffffffffffffffffff82169050919050565b613fed81613fc8565b8114613ff857600080fd5b50565b60008151905061400a81613fe4565b92915050565b60008151905061401f81613b87565b92915050565b600060c0828403121561403b5761403a613f22565b5b61404560c0613f98565b9050600061405584828501613fb3565b600083015250602061406984828501613ffb565b602083015250604061407d84828501613ffb565b604083015250606061409184828501614010565b60608301525060806140a584828501614010565b60808301525060a06140b984828501614010565b60a08301525092915050565b600060c082840312156140db576140da61366b565b5b60006140e984828501614025565b91505092915050565b6000602082840312156141085761410761366b565b5b600061411684828501613ffb565b91505092915050565b61412881613fc8565b82525050565b60006040820190506141436000830185613629565b614150602083018461411f565b9392505050565b60006020828403121561416d5761416c61366b565b5b600061417b84828501614010565b91505092915050565b60006040820190506141996000830185613629565b6141a66020830184613610565b9392505050565b60006040820190506141c26000830185613629565b6141cf6020830184613629565b9392505050565b7f4e487b7100000000000000000000000000000000000000000000000000000000600052601160045260246000fd5b60006142108261361f565b91507fffffffffffffffffffffffffffffffffffffffffffffffffffffffffffffffff8203614242576142416141d6565b5b600182019050919050565b600082825260208201905092915050565b7f596f7520646f6e2774206861766520737570706f7274657220617070726f7665600082015250565b600061429460208361424d565b915061429f8261425e565b602082019050919050565b600060208201905081810360008301526142c381614287565b9050919050565b600080fd5b600080fd5b600080fd5b6000823560016020038336030381126142f5576142f46142ca565b5b80830191505092915050565b6000808335600160200384360303811261431e5761431d6142ca565b5b80840192508235915067ffffffffffffffff8211156143405761433f6142cf565b5b60208301925060208202360383131561435c5761435b6142d4565b5b509250929050565b600082825260208201905092915050565b600080fd5b82818337505050565b600061438f8385614364565b93507f07ffffffffffffffffffffffffffffffffffffffffffffffffffffffffffffff8311156143c2576143c1614375565b5b6020830292506143d383858461437a565b82840190509392505050565b600060608201905081810360008301526143fa818688614383565b90506144096020830185613629565b6144166040830184613610565b95945050505050565b600061442a8261361f565b91506144358361361f565b925082820190508082111561444d5761444c6141d6565b5b92915050565b6000604082019050818103600083015261446e818587614383565b905061447d6020830184613610565b949350505050565b600060408201905061449a6000830186613629565b81810360208301526144ad818486614383565b9050949350505050565b600060a082840312156144cd576144cc613f22565b5b6144d760a0613f98565b905060006144e784828501614010565b60008301525060206144fb84828501614010565b602083015250604061450f84828501614010565b604083015250606061452384828501614010565b606083015250608061453784828501614010565b60808301525092915050565b600060a082840312156145595761455861366b565b5b6000614567848285016144b7565b91505092915050565b60006060820190506145856000830187613629565b8181036020830152614598818587614383565b90506145a76040830184613610565b95945050505050565b600060808201905081810360008301526145cb818789614383565b90506145da6020830186613629565b6145e76040830185613629565b6145f46060830184613629565b9695505050505050565b60006060820190508181036000830152614619818688614383565b90506146286020830185613629565b6146356040830184613629565b95945050505050565b6000602082840312156146545761465361366b565b5b600061466284828501613fb3565b91505092915050565b60006040820190506146806000830185613b5d565b61468d6020830184613b5d565b9392505050565b7f4f776e61626c653a206e6577206f776e657220697320746865207a65726f206160008201527f6464726573730000000000000000000000000000000000000000000000000000602082015250565b60006146f060268361424d565b91506146fb82614694565b604082019050919050565b6000602082019050818103600083015261471f816146e3565b9050919050565b7f4f776e61626c653a2063616c6c6572206973206e6f7420746865206f776e6572600082015250565b600061475c60208361424d565b915061476782614726565b602082019050919050565b6000602082019050818103600083015261478b8161474f565b9050919050565b600061479d8261361f565b91506147a88361361f565b92508282039050818111156147c0576147bf6141d6565b5b92915050565b7f4e487b7100000000000000000000000000000000000000000000000000000000600052603160045260246000fdfea2646970667358221220d3da3f3ed1207dc39d6b5be861b4215fd3f4f802c029930a3c1f3e5f6bb8964b64736f6c63430008100033",
  "linkReferences": {},
  "deployedLinkReferences": {}
}