{
  "_format": "hh-sol-artifact-1",
  "contractName": "SampleNFT",
  "sourceName": "contracts/SampleNFT.sol",
  "abi": [
    {
      "inputs": [
        {
          "internalType": "string",
          "name": "_name",
          "type": "string"
        },
        {
          "internalType": "string",
          "name": "_symbol",
          "type": "string"
        },
        {
          "internalType": "string",
          "name": "_initBaseURI",
          "type": "string"
        }
      ],
      "stateMutability": "nonpayable",
      "type": "constructor"
    },
    {
      "anonymous": false,
      "inputs": [
        {
          "indexed": true,
          "internalType": "address",
          "name": "owner",
          "type": "address"
        },
        {
          "indexed": true,
          "internalType": "address",
          "name": "approved",
          "type": "address"
        },
        {
          "indexed": true,
          "internalType": "uint256",
          "name": "tokenId",
          "type": "uint256"
        }
      ],
      "name": "Approval",
      "type": "event"
    },
    {
      "anonymous": false,
      "inputs": [
        {
          "indexed": true,
          "internalType": "address",
          "name": "owner",
          "type": "address"
        },
        {
          "indexed": true,
          "internalType": "address",
          "name": "operator",
          "type": "address"
        },
        {
          "indexed": false,
          "internalType": "bool",
          "name": "approved",
          "type": "bool"
        }
      ],
      "name": "ApprovalForAll",
      "type": "event"
    },
    {
      "anonymous": false,
      "inputs": [
        {
          "indexed": true,
          "internalType": "address",
          "name": "previousOwner",
          "type": "address"
        },
        {
          "indexed": true,
          "internalType": "address",
          "name": "newOwner",
          "type": "address"
        }
      ],
      "name": "OwnershipTransferred",
      "type": "event"
    },
    {
      "anonymous": false,
      "inputs": [
        {
          "indexed": true,
          "internalType": "address",
          "name": "from",
          "type": "address"
        },
        {
          "indexed": true,
          "internalType": "address",
          "name": "to",
          "type": "address"
        },
        {
          "indexed": true,
          "internalType": "uint256",
          "name": "tokenId",
          "type": "uint256"
        }
      ],
      "name": "Transfer",
      "type": "event"
    },
    {
      "inputs": [
        {
          "internalType": "address",
          "name": "to",
          "type": "address"
        },
        {
          "internalType": "uint256",
          "name": "tokenId",
          "type": "uint256"
        }
      ],
      "name": "approve",
      "outputs": [],
      "stateMutability": "nonpayable",
      "type": "function"
    },
    {
      "inputs": [
        {
          "internalType": "address",
          "name": "owner",
          "type": "address"
        }
      ],
      "name": "balanceOf",
      "outputs": [
        {
          "internalType": "uint256",
          "name": "",
          "type": "uint256"
        }
      ],
      "stateMutability": "view",
      "type": "function"
    },
    {
      "inputs": [],
      "name": "baseURI",
      "outputs": [
        {
          "internalType": "string",
          "name": "",
          "type": "string"
        }
      ],
      "stateMutability": "view",
      "type": "function"
    },
    {
      "inputs": [
        {
          "internalType": "uint256[]",
          "name": "tokenIds",
          "type": "uint256[]"
        },
        {
          "internalType": "address",
          "name": "to",
          "type": "address"
        }
      ],
      "name": "batchApprove",
      "outputs": [],
      "stateMutability": "nonpayable",
      "type": "function"
    },
    {
      "inputs": [
        {
          "internalType": "address",
          "name": "to",
          "type": "address"
        },
        {
          "internalType": "uint256",
          "name": "num",
          "type": "uint256"
        }
      ],
      "name": "batchMint",
      "outputs": [],
      "stateMutability": "nonpayable",
      "type": "function"
    },
    {
      "inputs": [
        {
          "internalType": "address",
          "name": "user",
          "type": "address"
        }
      ],
      "name": "getAllHeldIds",
      "outputs": [
        {
          "internalType": "uint256[]",
          "name": "",
          "type": "uint256[]"
        }
      ],
      "stateMutability": "view",
      "type": "function"
    },
    {
      "inputs": [
        {
          "internalType": "uint256",
          "name": "tokenId",
          "type": "uint256"
        }
      ],
      "name": "getApproved",
      "outputs": [
        {
          "internalType": "address",
          "name": "",
          "type": "address"
        }
      ],
      "stateMutability": "view",
      "type": "function"
    },
    {
      "inputs": [
        {
          "internalType": "address",
          "name": "owner",
          "type": "address"
        },
        {
          "internalType": "address",
          "name": "operator",
          "type": "address"
        }
      ],
      "name": "isApprovedForAll",
      "outputs": [
        {
          "internalType": "bool",
          "name": "",
          "type": "bool"
        }
      ],
      "stateMutability": "view",
      "type": "function"
    },
    {
      "inputs": [],
      "name": "mint",
      "outputs": [],
      "stateMutability": "nonpayable",
      "type": "function"
    },
    {
      "inputs": [],
      "name": "name",
      "outputs": [
        {
          "internalType": "string",
          "name": "",
          "type": "string"
        }
      ],
      "stateMutability": "view",
      "type": "function"
    },
    {
      "inputs": [],
      "name": "owner",
      "outputs": [
        {
          "internalType": "address",
          "name": "",
          "type": "address"
        }
      ],
      "stateMutability": "view",
      "type": "function"
    },
    {
      "inputs": [
        {
          "internalType": "uint256",
          "name": "tokenId",
          "type": "uint256"
        }
      ],
      "name": "ownerOf",
      "outputs": [
        {
          "internalType": "address",
          "name": "",
          "type": "address"
        }
      ],
      "stateMutability": "view",
      "type": "function"
    },
    {
      "inputs": [],
      "name": "renounceOwnership",
      "outputs": [],
      "stateMutability": "nonpayable",
      "type": "function"
    },
    {
      "inputs": [
        {
          "internalType": "address",
          "name": "from",
          "type": "address"
        },
        {
          "internalType": "address",
          "name": "to",
          "type": "address"
        },
        {
          "internalType": "uint256",
          "name": "tokenId",
          "type": "uint256"
        }
      ],
      "name": "safeTransferFrom",
      "outputs": [],
      "stateMutability": "nonpayable",
      "type": "function"
    },
    {
      "inputs": [
        {
          "internalType": "address",
          "name": "from",
          "type": "address"
        },
        {
          "internalType": "address",
          "name": "to",
          "type": "address"
        },
        {
          "internalType": "uint256",
          "name": "tokenId",
          "type": "uint256"
        },
        {
          "internalType": "bytes",
          "name": "data",
          "type": "bytes"
        }
      ],
      "name": "safeTransferFrom",
      "outputs": [],
      "stateMutability": "nonpayable",
      "type": "function"
    },
    {
      "inputs": [
        {
          "internalType": "address",
          "name": "operator",
          "type": "address"
        },
        {
          "internalType": "bool",
          "name": "approved",
          "type": "bool"
        }
      ],
      "name": "setApprovalForAll",
      "outputs": [],
      "stateMutability": "nonpayable",
      "type": "function"
    },
    {
      "inputs": [
        {
          "internalType": "string",
          "name": "_newBaseURI",
          "type": "string"
        }
      ],
      "name": "setBaseURI",
      "outputs": [],
      "stateMutability": "nonpayable",
      "type": "function"
    },
    {
      "inputs": [
        {
          "internalType": "bytes4",
          "name": "interfaceId",
          "type": "bytes4"
        }
      ],
      "name": "supportsInterface",
      "outputs": [
        {
          "internalType": "bool",
          "name": "",
          "type": "bool"
        }
      ],
      "stateMutability": "view",
      "type": "function"
    },
    {
      "inputs": [],
      "name": "symbol",
      "outputs": [
        {
          "internalType": "string",
          "name": "",
          "type": "string"
        }
      ],
      "stateMutability": "view",
      "type": "function"
    },
    {
      "inputs": [
        {
          "internalType": "uint256",
          "name": "index",
          "type": "uint256"
        }
      ],
      "name": "tokenByIndex",
      "outputs": [
        {
          "internalType": "uint256",
          "name": "",
          "type": "uint256"
        }
      ],
      "stateMutability": "view",
      "type": "function"
    },
    {
      "inputs": [
        {
          "internalType": "address",
          "name": "owner",
          "type": "address"
        },
        {
          "internalType": "uint256",
          "name": "index",
          "type": "uint256"
        }
      ],
      "name": "tokenOfOwnerByIndex",
      "outputs": [
        {
          "internalType": "uint256",
          "name": "",
          "type": "uint256"
        }
      ],
      "stateMutability": "view",
      "type": "function"
    },
    {
      "inputs": [
        {
          "internalType": "uint256",
          "name": "_tokenId",
          "type": "uint256"
        }
      ],
      "name": "tokenURI",
      "outputs": [
        {
          "internalType": "string",
          "name": "",
          "type": "string"
        }
      ],
      "stateMutability": "view",
      "type": "function"
    },
    {
      "inputs": [],
      "name": "totalSupply",
      "outputs": [
        {
          "internalType": "uint256",
          "name": "",
          "type": "uint256"
        }
      ],
      "stateMutability": "view",
      "type": "function"
    },
    {
      "inputs": [
        {
          "internalType": "address",
          "name": "from",
          "type": "address"
        },
        {
          "internalType": "address",
          "name": "to",
          "type": "address"
        },
        {
          "internalType": "uint256",
          "name": "tokenId",
          "type": "uint256"
        }
      ],
      "name": "transferFrom",
      "outputs": [],
      "stateMutability": "nonpayable",
      "type": "function"
    },
    {
      "inputs": [
        {
          "internalType": "address",
          "name": "newOwner",
          "type": "address"
        }
      ],
      "name": "transferOwnership",
      "outputs": [],
      "stateMutability": "nonpayable",
      "type": "function"
    }
  ],
  "bytecode": "0x60806040523480156200001157600080fd5b506040516200462f3803806200462f8339818101604052810190620000379190620003da565b828281600090816200004a9190620006de565b5080600190816200005c9190620006de565b5050506200007f620000736200009960201b60201c565b620000a160201b60201c565b62000090816200016760201b60201c565b50505062000848565b600033905090565b6000600a60009054906101000a900473ffffffffffffffffffffffffffffffffffffffff16905081600a60006101000a81548173ffffffffffffffffffffffffffffffffffffffff021916908373ffffffffffffffffffffffffffffffffffffffff1602179055508173ffffffffffffffffffffffffffffffffffffffff168173ffffffffffffffffffffffffffffffffffffffff167f8be0079c531659141344cd1fd0a4f28419497f9722a3daafe3b4186f6b6457e060405160405180910390a35050565b620001776200018c60201b60201c565b80600b9081620001889190620006de565b5050565b6200019c6200009960201b60201c565b73ffffffffffffffffffffffffffffffffffffffff16620001c26200021d60201b60201c565b73ffffffffffffffffffffffffffffffffffffffff16146200021b576040517f08c379a0000000000000000000000000000000000000000000000000000000008152600401620002129062000826565b60405180910390fd5b565b6000600a60009054906101000a900473ffffffffffffffffffffffffffffffffffffffff16905090565b6000604051905090565b600080fd5b600080fd5b600080fd5b600080fd5b6000601f19601f8301169050919050565b7f4e487b7100000000000000000000000000000000000000000000000000000000600052604160045260246000fd5b620002b08262000265565b810181811067ffffffffffffffff82111715620002d257620002d162000276565b5b80604052505050565b6000620002e762000247565b9050620002f58282620002a5565b919050565b600067ffffffffffffffff82111562000318576200031762000276565b5b620003238262000265565b9050602081019050919050565b60005b838110156200035057808201518184015260208101905062000333565b60008484015250505050565b6000620003736200036d84620002fa565b620002db565b90508281526020810184848401111562000392576200039162000260565b5b6200039f84828562000330565b509392505050565b600082601f830112620003bf57620003be6200025b565b5b8151620003d18482602086016200035c565b91505092915050565b600080600060608486031215620003f657620003f562000251565b5b600084015167ffffffffffffffff81111562000417576200041662000256565b5b6200042586828701620003a7565b935050602084015167ffffffffffffffff81111562000449576200044862000256565b5b6200045786828701620003a7565b925050604084015167ffffffffffffffff8111156200047b576200047a62000256565b5b6200048986828701620003a7565b9150509250925092565b600081519050919050565b7f4e487b7100000000000000000000000000000000000000000000000000000000600052602260045260246000fd5b60006002820490506001821680620004e657607f821691505b602082108103620004fc57620004fb6200049e565b5b50919050565b60008190508160005260206000209050919050565b60006020601f8301049050919050565b600082821b905092915050565b600060088302620005667fffffffffffffffffffffffffffffffffffffffffffffffffffffffffffffffff8262000527565b62000572868362000527565b95508019841693508086168417925050509392505050565b6000819050919050565b6000819050919050565b6000620005bf620005b9620005b3846200058a565b62000594565b6200058a565b9050919050565b6000819050919050565b620005db836200059e565b620005f3620005ea82620005c6565b84845462000534565b825550505050565b600090565b6200060a620005fb565b62000617818484620005d0565b505050565b5b818110156200063f576200063360008262000600565b6001810190506200061d565b5050565b601f8211156200068e57620006588162000502565b620006638462000517565b8101602085101562000673578190505b6200068b620006828562000517565b8301826200061c565b50505b505050565b600082821c905092915050565b6000620006b36000198460080262000693565b1980831691505092915050565b6000620006ce8383620006a0565b9150826002028217905092915050565b620006e98262000493565b67ffffffffffffffff81111562000705576200070462000276565b5b620007118254620004cd565b6200071e82828562000643565b600060209050601f83116001811462000756576000841562000741578287015190505b6200074d8582620006c0565b865550620007bd565b601f198416620007668662000502565b60005b82811015620007905784890151825560018201915060208501945060208101905062000769565b86831015620007b05784890151620007ac601f891682620006a0565b8355505b6001600288020188555050505b505050505050565b600082825260208201905092915050565b7f4f776e61626c653a2063616c6c6572206973206e6f7420746865206f776e6572600082015250565b60006200080e602083620007c5565b91506200081b82620007d6565b602082019050919050565b600060208201905081810360008301526200084181620007ff565b9050919050565b613dd780620008586000396000f3fe608060405234801561001057600080fd5b50600436106101735760003560e01c806355f804b3116100de57806395d89b4111610097578063b88d4fde11610071578063b88d4fde14610436578063c87b56dd14610452578063e985e9c514610482578063f2fde38b146104b257610173565b806395d89b41146103cc578063985bdeea146103ea578063a22cb4651461041a57610173565b806355f804b31461030a5780636352211e146103265780636c0360eb1461035657806370a0823114610374578063715018a6146103a45780638da5cb5b146103ae57610173565b806323b872dd1161013057806323b872dd1461023a5780632f745c591461025657806338752e581461028657806342842e0e146102a257806343508b05146102be5780634f6ccce7146102da57610173565b806301ffc9a71461017857806306fdde03146101a8578063081812fc146101c6578063095ea7b3146101f65780631249c58b1461021257806318160ddd1461021c575b600080fd5b610192600480360381019061018d9190612327565b6104ce565b60405161019f919061236f565b60405180910390f35b6101b0610548565b6040516101bd919061241a565b60405180910390f35b6101e060048036038101906101db9190612472565b6105da565b6040516101ed91906124e0565b60405180910390f35b610210600480360381019061020b9190612527565b610620565b005b61021a610737565b005b61022461075c565b6040516102319190612576565b60405180910390f35b610254600480360381019061024f9190612591565b610769565b005b610270600480360381019061026b9190612527565b6107c9565b60405161027d9190612576565b60405180910390f35b6102a0600480360381019061029b9190612649565b61086e565b005b6102bc60048036038101906102b79190612591565b6108b8565b005b6102d860048036038101906102d39190612527565b6108d8565b005b6102f460048036038101906102ef9190612472565b610926565b6040516103019190612576565b60405180910390f35b610324600480360381019061031f91906127d9565b610997565b005b610340600480360381019061033b9190612472565b6109b2565b60405161034d91906124e0565b60405180910390f35b61035e610a63565b60405161036b919061241a565b60405180910390f35b61038e60048036038101906103899190612822565b610af1565b60405161039b9190612576565b60405180910390f35b6103ac610ba8565b005b6103b6610bbc565b6040516103c391906124e0565b60405180910390f35b6103d4610be6565b6040516103e1919061241a565b60405180910390f35b61040460048036038101906103ff9190612822565b610c78565b604051610411919061290d565b60405180910390f35b610434600480360381019061042f919061295b565b610d26565b005b610450600480360381019061044b9190612a3c565b610d3c565b005b61046c60048036038101906104679190612472565b610d9e565b604051610479919061241a565b60405180910390f35b61049c60048036038101906104979190612abf565b610e4d565b6040516104a9919061236f565b60405180910390f35b6104cc60048036038101906104c79190612822565b610ee1565b005b60007f780e9d63000000000000000000000000000000000000000000000000000000007bffffffffffffffffffffffffffffffffffffffffffffffffffffffff1916827bffffffffffffffffffffffffffffffffffffffffffffffffffffffff19161480610541575061054082610f64565b5b9050919050565b60606000805461055790612b2e565b80601f016020809104026020016040519081016040528092919081815260200182805461058390612b2e565b80156105d05780601f106105a5576101008083540402835291602001916105d0565b820191906000526020600020905b8154815290600101906020018083116105b357829003601f168201915b5050505050905090565b60006105e582611046565b6004600083815260200190815260200160002060009054906101000a900473ffffffffffffffffffffffffffffffffffffffff169050919050565b600061062b826109b2565b90508073ffffffffffffffffffffffffffffffffffffffff168373ffffffffffffffffffffffffffffffffffffffff160361069b576040517f08c379a000000000000000000000000000000000000000000000000000000000815260040161069290612bd1565b60405180910390fd5b8073ffffffffffffffffffffffffffffffffffffffff166106ba611091565b73ffffffffffffffffffffffffffffffffffffffff1614806106e957506106e8816106e3611091565b610e4d565b5b610728576040517f08c379a000000000000000000000000000000000000000000000000000000000815260040161071f90612c63565b60405180910390fd5b6107328383611099565b505050565b610741600c611152565b600061074d600c611168565b90506107593382611176565b50565b6000600880549050905090565b61077a610774611091565b8261134f565b6107b9576040517f08c379a00000000000000000000000000000000000000000000000000000000081526004016107b090612cf5565b60405180910390fd5b6107c48383836113e4565b505050565b60006107d483610af1565b8210610815576040517f08c379a000000000000000000000000000000000000000000000000000000000815260040161080c90612d87565b60405180910390fd5b600660008473ffffffffffffffffffffffffffffffffffffffff1673ffffffffffffffffffffffffffffffffffffffff168152602001908152602001600020600083815260200190815260200160002054905092915050565b60005b838390508110156108b25761089f8285858481811061089357610892612da7565b5b90506020020135610620565b80806108aa90612e05565b915050610871565b50505050565b6108d383838360405180602001604052806000815250610d3c565b505050565b6108e061164a565b60005b81811015610921576108f5600c611152565b6000610901600c611168565b905061090d8482611176565b50808061091990612e05565b9150506108e3565b505050565b600061093061075c565b8210610971576040517f08c379a000000000000000000000000000000000000000000000000000000000815260040161096890612ebf565b60405180910390fd5b6008828154811061098557610984612da7565b5b90600052602060002001549050919050565b61099f61164a565b80600b90816109ae919061308b565b5050565b6000806002600084815260200190815260200160002060009054906101000a900473ffffffffffffffffffffffffffffffffffffffff169050600073ffffffffffffffffffffffffffffffffffffffff168173ffffffffffffffffffffffffffffffffffffffff1603610a5a576040517f08c379a0000000000000000000000000000000000000000000000000000000008152600401610a51906131a9565b60405180910390fd5b80915050919050565b600b8054610a7090612b2e565b80601f0160208091040260200160405190810160405280929190818152602001828054610a9c90612b2e565b8015610ae95780601f10610abe57610100808354040283529160200191610ae9565b820191906000526020600020905b815481529060010190602001808311610acc57829003601f168201915b505050505081565b60008073ffffffffffffffffffffffffffffffffffffffff168273ffffffffffffffffffffffffffffffffffffffff1603610b61576040517f08c379a0000000000000000000000000000000000000000000000000000000008152600401610b589061323b565b60405180910390fd5b600360008373ffffffffffffffffffffffffffffffffffffffff1673ffffffffffffffffffffffffffffffffffffffff168152602001908152602001600020549050919050565b610bb061164a565b610bba60006116c8565b565b6000600a60009054906101000a900473ffffffffffffffffffffffffffffffffffffffff16905090565b606060018054610bf590612b2e565b80601f0160208091040260200160405190810160405280929190818152602001828054610c2190612b2e565b8015610c6e5780601f10610c4357610100808354040283529160200191610c6e565b820191906000526020600020905b815481529060010190602001808311610c5157829003601f168201915b5050505050905090565b60606000610c8583610af1565b905060008167ffffffffffffffff811115610ca357610ca26126ae565b5b604051908082528060200260200182016040528015610cd15781602001602082028036833780820191505090505b50905060005b82811015610d1b57610ce985826107c9565b828281518110610cfc57610cfb612da7565b5b6020026020010181815250508080610d1390612e05565b915050610cd7565b508092505050919050565b610d38610d31611091565b838361178e565b5050565b610d4d610d47611091565b8361134f565b610d8c576040517f08c379a0000000000000000000000000000000000000000000000000000000008152600401610d8390612cf5565b60405180910390fd5b610d98848484846118fa565b50505050565b6060610da982611956565b610de8576040517f08c379a0000000000000000000000000000000000000000000000000000000008152600401610ddf906132a7565b60405180910390fd5b6000610df3836119c2565b600b604051602001610e06929190613632565b60405160208183030381529060405290506000610e2282611b22565b604051602001610e3291906136fa565b60405160208183030381529060405290508092505050919050565b6000600560008473ffffffffffffffffffffffffffffffffffffffff1673ffffffffffffffffffffffffffffffffffffffff16815260200190815260200160002060008373ffffffffffffffffffffffffffffffffffffffff1673ffffffffffffffffffffffffffffffffffffffff16815260200190815260200160002060009054906101000a900460ff16905092915050565b610ee961164a565b600073ffffffffffffffffffffffffffffffffffffffff168173ffffffffffffffffffffffffffffffffffffffff1603610f58576040517f08c379a0000000000000000000000000000000000000000000000000000000008152600401610f4f9061378e565b60405180910390fd5b610f61816116c8565b50565b60007f80ac58cd000000000000000000000000000000000000000000000000000000007bffffffffffffffffffffffffffffffffffffffffffffffffffffffff1916827bffffffffffffffffffffffffffffffffffffffffffffffffffffffff1916148061102f57507f5b5e139f000000000000000000000000000000000000000000000000000000007bffffffffffffffffffffffffffffffffffffffffffffffffffffffff1916827bffffffffffffffffffffffffffffffffffffffffffffffffffffffff1916145b8061103f575061103e82611c85565b5b9050919050565b61104f81611956565b61108e576040517f08c379a0000000000000000000000000000000000000000000000000000000008152600401611085906131a9565b60405180910390fd5b50565b600033905090565b816004600083815260200190815260200160002060006101000a81548173ffffffffffffffffffffffffffffffffffffffff021916908373ffffffffffffffffffffffffffffffffffffffff160217905550808273ffffffffffffffffffffffffffffffffffffffff1661110c836109b2565b73ffffffffffffffffffffffffffffffffffffffff167f8c5be1e5ebec7d5bd14f71427d1e84f3dd0314c0f7b2291e5b200ac8c7c3b92560405160405180910390a45050565b6001816000016000828254019250508190555050565b600081600001549050919050565b600073ffffffffffffffffffffffffffffffffffffffff168273ffffffffffffffffffffffffffffffffffffffff16036111e5576040517f08c379a00000000000000000000000000000000000000000000000000000000081526004016111dc906137fa565b60405180910390fd5b6111ee81611956565b1561122e576040517f08c379a000000000000000000000000000000000000000000000000000000000815260040161122590613866565b60405180910390fd5b61123a60008383611cef565b6001600360008473ffffffffffffffffffffffffffffffffffffffff1673ffffffffffffffffffffffffffffffffffffffff168152602001908152602001600020600082825461128a9190613886565b92505081905550816002600083815260200190815260200160002060006101000a81548173ffffffffffffffffffffffffffffffffffffffff021916908373ffffffffffffffffffffffffffffffffffffffff160217905550808273ffffffffffffffffffffffffffffffffffffffff16600073ffffffffffffffffffffffffffffffffffffffff167fddf252ad1be2c89b69c2b068fc378daa952ba7f163c4a11628f55a4df523b3ef60405160405180910390a461134b60008383611e01565b5050565b60008061135b836109b2565b90508073ffffffffffffffffffffffffffffffffffffffff168473ffffffffffffffffffffffffffffffffffffffff16148061139d575061139c8185610e4d565b5b806113db57508373ffffffffffffffffffffffffffffffffffffffff166113c3846105da565b73ffffffffffffffffffffffffffffffffffffffff16145b91505092915050565b8273ffffffffffffffffffffffffffffffffffffffff16611404826109b2565b73ffffffffffffffffffffffffffffffffffffffff161461145a576040517f08c379a00000000000000000000000000000000000000000000000000000000081526004016114519061392c565b60405180910390fd5b600073ffffffffffffffffffffffffffffffffffffffff168273ffffffffffffffffffffffffffffffffffffffff16036114c9576040517f08c379a00000000000000000000000000000000000000000000000000000000081526004016114c0906139be565b60405180910390fd5b6114d4838383611cef565b6114df600082611099565b6001600360008573ffffffffffffffffffffffffffffffffffffffff1673ffffffffffffffffffffffffffffffffffffffff168152602001908152602001600020600082825461152f91906139de565b925050819055506001600360008473ffffffffffffffffffffffffffffffffffffffff1673ffffffffffffffffffffffffffffffffffffffff16815260200190815260200160002060008282546115869190613886565b92505081905550816002600083815260200190815260200160002060006101000a81548173ffffffffffffffffffffffffffffffffffffffff021916908373ffffffffffffffffffffffffffffffffffffffff160217905550808273ffffffffffffffffffffffffffffffffffffffff168473ffffffffffffffffffffffffffffffffffffffff167fddf252ad1be2c89b69c2b068fc378daa952ba7f163c4a11628f55a4df523b3ef60405160405180910390a4611645838383611e01565b505050565b611652611091565b73ffffffffffffffffffffffffffffffffffffffff16611670610bbc565b73ffffffffffffffffffffffffffffffffffffffff16146116c6576040517f08c379a00000000000000000000000000000000000000000000000000000000081526004016116bd90613a5e565b60405180910390fd5b565b6000600a60009054906101000a900473ffffffffffffffffffffffffffffffffffffffff16905081600a60006101000a81548173ffffffffffffffffffffffffffffffffffffffff021916908373ffffffffffffffffffffffffffffffffffffffff1602179055508173ffffffffffffffffffffffffffffffffffffffff168173ffffffffffffffffffffffffffffffffffffffff167f8be0079c531659141344cd1fd0a4f28419497f9722a3daafe3b4186f6b6457e060405160405180910390a35050565b8173ffffffffffffffffffffffffffffffffffffffff168373ffffffffffffffffffffffffffffffffffffffff16036117fc576040517f08c379a00000000000000000000000000000000000000000000000000000000081526004016117f390613aca565b60405180910390fd5b80600560008573ffffffffffffffffffffffffffffffffffffffff1673ffffffffffffffffffffffffffffffffffffffff16815260200190815260200160002060008473ffffffffffffffffffffffffffffffffffffffff1673ffffffffffffffffffffffffffffffffffffffff16815260200190815260200160002060006101000a81548160ff0219169083151502179055508173ffffffffffffffffffffffffffffffffffffffff168373ffffffffffffffffffffffffffffffffffffffff167f17307eab39ab6107e8899845ad3d59bd9653f200f220920489ca2b5937696c31836040516118ed919061236f565b60405180910390a3505050565b6119058484846113e4565b61191184848484611e06565b611950576040517f08c379a000000000000000000000000000000000000000000000000000000000815260040161194790613b5c565b60405180910390fd5b50505050565b60008073ffffffffffffffffffffffffffffffffffffffff166002600084815260200190815260200160002060009054906101000a900473ffffffffffffffffffffffffffffffffffffffff1673ffffffffffffffffffffffffffffffffffffffff1614159050919050565b606060008203611a09576040518060400160405280600181526020017f30000000000000000000000000000000000000000000000000000000000000008152509050611b1d565b600082905060005b60008214611a3b578080611a2490612e05565b915050600a82611a349190613bab565b9150611a11565b60008167ffffffffffffffff811115611a5757611a566126ae565b5b6040519080825280601f01601f191660200182016040528015611a895781602001600182028036833780820191505090505b5090505b60008514611b1657600182611aa291906139de565b9150600a85611ab19190613bdc565b6030611abd9190613886565b60f81b818381518110611ad357611ad2612da7565b5b60200101907effffffffffffffffffffffffffffffffffffffffffffffffffffffffffffff1916908160001a905350600a85611b0f9190613bab565b9450611a8d565b8093505050505b919050565b60606000825103611b4457604051806020016040528060008152509050611c80565b6000604051806060016040528060408152602001613d626040913990506000600360028551611b739190613886565b611b7d9190613bab565b6004611b899190613c0d565b67ffffffffffffffff811115611ba257611ba16126ae565b5b6040519080825280601f01601f191660200182016040528015611bd45781602001600182028036833780820191505090505b509050600182016020820185865187015b80821015611c40576003820191508151603f8160121c168501518453600184019350603f81600c1c168501518453600184019350603f8160061c168501518453600184019350603f8116850151845360018401935050611be5565b5050600386510660018114611c5c5760028114611c6f57611c77565b603d6001830353603d6002830353611c77565b603d60018303535b50505080925050505b919050565b60007f01ffc9a7000000000000000000000000000000000000000000000000000000007bffffffffffffffffffffffffffffffffffffffffffffffffffffffff1916827bffffffffffffffffffffffffffffffffffffffffffffffffffffffff1916149050919050565b611cfa838383611f8d565b600073ffffffffffffffffffffffffffffffffffffffff168373ffffffffffffffffffffffffffffffffffffffff1603611d3c57611d3781611f92565b611d7b565b8173ffffffffffffffffffffffffffffffffffffffff168373ffffffffffffffffffffffffffffffffffffffff1614611d7a57611d798382611fdb565b5b5b600073ffffffffffffffffffffffffffffffffffffffff168273ffffffffffffffffffffffffffffffffffffffff1603611dbd57611db881612148565b611dfc565b8273ffffffffffffffffffffffffffffffffffffffff168273ffffffffffffffffffffffffffffffffffffffff1614611dfb57611dfa8282612219565b5b5b505050565b505050565b6000611e278473ffffffffffffffffffffffffffffffffffffffff16612298565b15611f80578373ffffffffffffffffffffffffffffffffffffffff1663150b7a02611e50611091565b8786866040518563ffffffff1660e01b8152600401611e729493929190613ca4565b6020604051808303816000875af1925050508015611eae57506040513d601f19601f82011682018060405250810190611eab9190613d05565b60015b611f30573d8060008114611ede576040519150601f19603f3d011682016040523d82523d6000602084013e611ee3565b606091505b506000815103611f28576040517f08c379a0000000000000000000000000000000000000000000000000000000008152600401611f1f90613b5c565b60405180910390fd5b805181602001fd5b63150b7a0260e01b7bffffffffffffffffffffffffffffffffffffffffffffffffffffffff1916817bffffffffffffffffffffffffffffffffffffffffffffffffffffffff191614915050611f85565b600190505b949350505050565b505050565b6008805490506009600083815260200190815260200160002081905550600881908060018154018082558091505060019003906000526020600020016000909190919091505550565b60006001611fe884610af1565b611ff291906139de565b90506000600760008481526020019081526020016000205490508181146120d7576000600660008673ffffffffffffffffffffffffffffffffffffffff1673ffffffffffffffffffffffffffffffffffffffff168152602001908152602001600020600084815260200190815260200160002054905080600660008773ffffffffffffffffffffffffffffffffffffffff1673ffffffffffffffffffffffffffffffffffffffff168152602001908152602001600020600084815260200190815260200160002081905550816007600083815260200190815260200160002081905550505b6007600084815260200190815260200160002060009055600660008573ffffffffffffffffffffffffffffffffffffffff1673ffffffffffffffffffffffffffffffffffffffff16815260200190815260200160002060008381526020019081526020016000206000905550505050565b6000600160088054905061215c91906139de565b905060006009600084815260200190815260200160002054905060006008838154811061218c5761218b612da7565b5b9060005260206000200154905080600883815481106121ae576121ad612da7565b5b9060005260206000200181905550816009600083815260200190815260200160002081905550600960008581526020019081526020016000206000905560088054806121fd576121fc613d32565b5b6001900381819060005260206000200160009055905550505050565b600061222483610af1565b905081600660008573ffffffffffffffffffffffffffffffffffffffff1673ffffffffffffffffffffffffffffffffffffffff168152602001908152602001600020600083815260200190815260200160002081905550806007600084815260200190815260200160002081905550505050565b6000808273ffffffffffffffffffffffffffffffffffffffff163b119050919050565b6000604051905090565b600080fd5b600080fd5b60007fffffffff0000000000000000000000000000000000000000000000000000000082169050919050565b612304816122cf565b811461230f57600080fd5b50565b600081359050612321816122fb565b92915050565b60006020828403121561233d5761233c6122c5565b5b600061234b84828501612312565b91505092915050565b60008115159050919050565b61236981612354565b82525050565b60006020820190506123846000830184612360565b92915050565b600081519050919050565b600082825260208201905092915050565b60005b838110156123c45780820151818401526020810190506123a9565b60008484015250505050565b6000601f19601f8301169050919050565b60006123ec8261238a565b6123f68185612395565b93506124068185602086016123a6565b61240f816123d0565b840191505092915050565b6000602082019050818103600083015261243481846123e1565b905092915050565b6000819050919050565b61244f8161243c565b811461245a57600080fd5b50565b60008135905061246c81612446565b92915050565b600060208284031215612488576124876122c5565b5b60006124968482850161245d565b91505092915050565b600073ffffffffffffffffffffffffffffffffffffffff82169050919050565b60006124ca8261249f565b9050919050565b6124da816124bf565b82525050565b60006020820190506124f560008301846124d1565b92915050565b612504816124bf565b811461250f57600080fd5b50565b600081359050612521816124fb565b92915050565b6000806040838503121561253e5761253d6122c5565b5b600061254c85828601612512565b925050602061255d8582860161245d565b9150509250929050565b6125708161243c565b82525050565b600060208201905061258b6000830184612567565b92915050565b6000806000606084860312156125aa576125a96122c5565b5b60006125b886828701612512565b93505060206125c986828701612512565b92505060406125da8682870161245d565b9150509250925092565b600080fd5b600080fd5b600080fd5b60008083601f840112612609576126086125e4565b5b8235905067ffffffffffffffff811115612626576126256125e9565b5b602083019150836020820283011115612642576126416125ee565b5b9250929050565b600080600060408486031215612662576126616122c5565b5b600084013567ffffffffffffffff8111156126805761267f6122ca565b5b61268c868287016125f3565b9350935050602061269f86828701612512565b9150509250925092565b600080fd5b7f4e487b7100000000000000000000000000000000000000000000000000000000600052604160045260246000fd5b6126e6826123d0565b810181811067ffffffffffffffff82111715612705576127046126ae565b5b80604052505050565b60006127186122bb565b905061272482826126dd565b919050565b600067ffffffffffffffff821115612744576127436126ae565b5b61274d826123d0565b9050602081019050919050565b82818337600083830152505050565b600061277c61277784612729565b61270e565b905082815260208101848484011115612798576127976126a9565b5b6127a384828561275a565b509392505050565b600082601f8301126127c0576127bf6125e4565b5b81356127d0848260208601612769565b91505092915050565b6000602082840312156127ef576127ee6122c5565b5b600082013567ffffffffffffffff81111561280d5761280c6122ca565b5b612819848285016127ab565b91505092915050565b600060208284031215612838576128376122c5565b5b600061284684828501612512565b91505092915050565b600081519050919050565b600082825260208201905092915050565b6000819050602082019050919050565b6128848161243c565b82525050565b6000612896838361287b565b60208301905092915050565b6000602082019050919050565b60006128ba8261284f565b6128c4818561285a565b93506128cf8361286b565b8060005b838110156129005781516128e7888261288a565b97506128f2836128a2565b9250506001810190506128d3565b5085935050505092915050565b6000602082019050818103600083015261292781846128af565b905092915050565b61293881612354565b811461294357600080fd5b50565b6000813590506129558161292f565b92915050565b60008060408385031215612972576129716122c5565b5b600061298085828601612512565b925050602061299185828601612946565b9150509250929050565b600067ffffffffffffffff8211156129b6576129b56126ae565b5b6129bf826123d0565b9050602081019050919050565b60006129df6129da8461299b565b61270e565b9050828152602081018484840111156129fb576129fa6126a9565b5b612a0684828561275a565b509392505050565b600082601f830112612a2357612a226125e4565b5b8135612a338482602086016129cc565b91505092915050565b60008060008060808587031215612a5657612a556122c5565b5b6000612a6487828801612512565b9450506020612a7587828801612512565b9350506040612a868782880161245d565b925050606085013567ffffffffffffffff811115612aa757612aa66122ca565b5b612ab387828801612a0e565b91505092959194509250565b60008060408385031215612ad657612ad56122c5565b5b6000612ae485828601612512565b9250506020612af585828601612512565b9150509250929050565b7f4e487b7100000000000000000000000000000000000000000000000000000000600052602260045260246000fd5b60006002820490506001821680612b4657607f821691505b602082108103612b5957612b58612aff565b5b50919050565b7f4552433732313a20617070726f76616c20746f2063757272656e74206f776e6560008201527f7200000000000000000000000000000000000000000000000000000000000000602082015250565b6000612bbb602183612395565b9150612bc682612b5f565b604082019050919050565b60006020820190508181036000830152612bea81612bae565b9050919050565b7f4552433732313a20617070726f76652063616c6c6572206973206e6f7420746f60008201527f6b656e206f776e6572206e6f7220617070726f76656420666f7220616c6c0000602082015250565b6000612c4d603e83612395565b9150612c5882612bf1565b604082019050919050565b60006020820190508181036000830152612c7c81612c40565b9050919050565b7f4552433732313a2063616c6c6572206973206e6f7420746f6b656e206f776e6560008201527f72206e6f7220617070726f766564000000000000000000000000000000000000602082015250565b6000612cdf602e83612395565b9150612cea82612c83565b604082019050919050565b60006020820190508181036000830152612d0e81612cd2565b9050919050565b7f455243373231456e756d657261626c653a206f776e657220696e646578206f7560008201527f74206f6620626f756e6473000000000000000000000000000000000000000000602082015250565b6000612d71602b83612395565b9150612d7c82612d15565b604082019050919050565b60006020820190508181036000830152612da081612d64565b9050919050565b7f4e487b7100000000000000000000000000000000000000000000000000000000600052603260045260246000fd5b7f4e487b7100000000000000000000000000000000000000000000000000000000600052601160045260246000fd5b6000612e108261243c565b91507fffffffffffffffffffffffffffffffffffffffffffffffffffffffffffffffff8203612e4257612e41612dd6565b5b600182019050919050565b7f455243373231456e756d657261626c653a20676c6f62616c20696e646578206f60008201527f7574206f6620626f756e64730000000000000000000000000000000000000000602082015250565b6000612ea9602c83612395565b9150612eb482612e4d565b604082019050919050565b60006020820190508181036000830152612ed881612e9c565b9050919050565b60008190508160005260206000209050919050565b60006020601f8301049050919050565b600082821b905092915050565b600060088302612f417fffffffffffffffffffffffffffffffffffffffffffffffffffffffffffffffff82612f04565b612f4b8683612f04565b95508019841693508086168417925050509392505050565b6000819050919050565b6000612f88612f83612f7e8461243c565b612f63565b61243c565b9050919050565b6000819050919050565b612fa283612f6d565b612fb6612fae82612f8f565b848454612f11565b825550505050565b600090565b612fcb612fbe565b612fd6818484612f99565b505050565b5b81811015612ffa57612fef600082612fc3565b600181019050612fdc565b5050565b601f82111561303f5761301081612edf565b61301984612ef4565b81016020851015613028578190505b61303c61303485612ef4565b830182612fdb565b50505b505050565b600082821c905092915050565b600061306260001984600802613044565b1980831691505092915050565b600061307b8383613051565b9150826002028217905092915050565b6130948261238a565b67ffffffffffffffff8111156130ad576130ac6126ae565b5b6130b78254612b2e565b6130c2828285612ffe565b600060209050601f8311600181146130f557600084156130e3578287015190505b6130ed858261306f565b865550613155565b601f19841661310386612edf565b60005b8281101561312b57848901518255600182019150602085019450602081019050613106565b868310156131485784890151613144601f891682613051565b8355505b6001600288020188555050505b505050505050565b7f4552433732313a20696e76616c696420746f6b656e2049440000000000000000600082015250565b6000613193601883612395565b915061319e8261315d565b602082019050919050565b600060208201905081810360008301526131c281613186565b9050919050565b7f4552433732313a2061646472657373207a65726f206973206e6f74206120766160008201527f6c6964206f776e65720000000000000000000000000000000000000000000000602082015250565b6000613225602983612395565b9150613230826131c9565b604082019050919050565b6000602082019050818103600083015261325481613218565b9050919050565b7f6e6f6e6578697374656e7420746f6b656e000000000000000000000000000000600082015250565b6000613291601183612395565b915061329c8261325b565b602082019050919050565b600060208201905081810360008301526132c081613284565b9050919050565b600081905092915050565b7f7b00000000000000000000000000000000000000000000000000000000000000600082015250565b60006133086001836132c7565b9150613313826132d2565b600182019050919050565b7f226e616d65223a202241737461722043616e6479202300000000000000000000600082015250565b60006133546016836132c7565b915061335f8261331e565b601682019050919050565b60006133758261238a565b61337f81856132c7565b935061338f8185602086016123a6565b80840191505092915050565b7f222c000000000000000000000000000000000000000000000000000000000000600082015250565b60006133d16002836132c7565b91506133dc8261339b565b600282019050919050565b7f226465736372697074696f6e223a202254686973204e46542069732061206c6960008201527f6d697465642065646974696f6e204e465420697373756564207468726f75676860208201527f206120636f6c6c61626f726174696f6e206265747765656e204173746172204e60408201527f6574776f726b2c2043727970746f4261722050325020616e6420596f6d69537760608201527f61702e222c000000000000000000000000000000000000000000000000000000608082015250565b60006134b56085836132c7565b91506134c0826133e7565b608582019050919050565b7f22696d616765223a000000000000000000000000000000000000000000000000600082015250565b60006135016008836132c7565b915061350c826134cb565b600882019050919050565b7f2200000000000000000000000000000000000000000000000000000000000000600082015250565b600061354d6001836132c7565b915061355882613517565b600182019050919050565b6000815461357081612b2e565b61357a81866132c7565b9450600182166000811461359557600181146135aa576135dd565b60ff19831686528115158202860193506135dd565b6135b385612edf565b60005b838110156135d5578154818901526001820191506020810190506135b6565b838801955050505b50505092915050565b7f7d00000000000000000000000000000000000000000000000000000000000000600082015250565b600061361c6001836132c7565b9150613627826135e6565b600182019050919050565b600061363d826132fb565b915061364882613347565b9150613654828561336a565b915061365f826133c4565b915061366a826134a8565b9150613675826134f4565b915061368082613540565b915061368c8284613563565b915061369782613540565b91506136a28261360f565b91508190509392505050565b7f646174613a6170706c69636174696f6e2f6a736f6e3b6261736536342c000000600082015250565b60006136e4601d836132c7565b91506136ef826136ae565b601d82019050919050565b6000613705826136d7565b9150613711828461336a565b915081905092915050565b7f4f776e61626c653a206e6577206f776e657220697320746865207a65726f206160008201527f6464726573730000000000000000000000000000000000000000000000000000602082015250565b6000613778602683612395565b91506137838261371c565b604082019050919050565b600060208201905081810360008301526137a78161376b565b9050919050565b7f4552433732313a206d696e7420746f20746865207a65726f2061646472657373600082015250565b60006137e4602083612395565b91506137ef826137ae565b602082019050919050565b60006020820190508181036000830152613813816137d7565b9050919050565b7f4552433732313a20746f6b656e20616c7265616479206d696e74656400000000600082015250565b6000613850601c83612395565b915061385b8261381a565b602082019050919050565b6000602082019050818103600083015261387f81613843565b9050919050565b60006138918261243c565b915061389c8361243c565b92508282019050808211156138b4576138b3612dd6565b5b92915050565b7f4552433732313a207472616e736665722066726f6d20696e636f72726563742060008201527f6f776e6572000000000000000000000000000000000000000000000000000000602082015250565b6000613916602583612395565b9150613921826138ba565b604082019050919050565b6000602082019050818103600083015261394581613909565b9050919050565b7f4552433732313a207472616e7366657220746f20746865207a65726f2061646460008201527f7265737300000000000000000000000000000000000000000000000000000000602082015250565b60006139a8602483612395565b91506139b38261394c565b604082019050919050565b600060208201905081810360008301526139d78161399b565b9050919050565b60006139e98261243c565b91506139f48361243c565b9250828203905081811115613a0c57613a0b612dd6565b5b92915050565b7f4f776e61626c653a2063616c6c6572206973206e6f7420746865206f776e6572600082015250565b6000613a48602083612395565b9150613a5382613a12565b602082019050919050565b60006020820190508181036000830152613a7781613a3b565b9050919050565b7f4552433732313a20617070726f766520746f2063616c6c657200000000000000600082015250565b6000613ab4601983612395565b9150613abf82613a7e565b602082019050919050565b60006020820190508181036000830152613ae381613aa7565b9050919050565b7f4552433732313a207472616e7366657220746f206e6f6e20455243373231526560008201527f63656976657220696d706c656d656e7465720000000000000000000000000000602082015250565b6000613b46603283612395565b9150613b5182613aea565b604082019050919050565b60006020820190508181036000830152613b7581613b39565b9050919050565b7f4e487b7100000000000000000000000000000000000000000000000000000000600052601260045260246000fd5b6000613bb68261243c565b9150613bc18361243c565b925082613bd157613bd0613b7c565b5b828204905092915050565b6000613be78261243c565b9150613bf28361243c565b925082613c0257613c01613b7c565b5b828206905092915050565b6000613c188261243c565b9150613c238361243c565b9250828202613c318161243c565b91508282048414831517613c4857613c47612dd6565b5b5092915050565b600081519050919050565b600082825260208201905092915050565b6000613c7682613c4f565b613c808185613c5a565b9350613c908185602086016123a6565b613c99816123d0565b840191505092915050565b6000608082019050613cb960008301876124d1565b613cc660208301866124d1565b613cd36040830185612567565b8181036060830152613ce58184613c6b565b905095945050505050565b600081519050613cff816122fb565b92915050565b600060208284031215613d1b57613d1a6122c5565b5b6000613d2984828501613cf0565b91505092915050565b7f4e487b7100000000000000000000000000000000000000000000000000000000600052603160045260246000fdfe4142434445464748494a4b4c4d4e4f505152535455565758595a6162636465666768696a6b6c6d6e6f707172737475767778797a303132333435363738392b2fa26469706673582212203ceb312b34efd28538807f22f2f6b141b4de66fcc83c13bc87409bb85f5aceb064736f6c63430008110033",
  "linkReferences": {},
  "deployedLinkReferences": {}
}