{
  "_format": "hh-sol-artifact-1",
  "contractName": "SingleNativeNOPool",
  "sourceName": "contracts/pool/SingleNativeNOPool.sol",
  "abi": [
    {
      "inputs": [
        {
          "internalType": "address",
          "name": "_collection",
          "type": "address"
        },
        {
          "internalType": "address",
          "name": "_bondingCurve",
          "type": "address"
        },
        {
          "internalType": "uint256",
          "name": "_spotPrice",
          "type": "uint256"
        },
        {
          "internalType": "uint256",
          "name": "_delta",
          "type": "uint256"
        },
        {
          "internalType": "uint256",
          "name": "_spread",
          "type": "uint256"
        },
        {
          "internalType": "uint256",
          "name": "_protocolFeeRatio",
          "type": "uint256"
        },
        {
          "internalType": "address",
          "name": "_router",
          "type": "address"
        },
        {
          "internalType": "address",
          "name": "_creater",
          "type": "address"
        }
      ],
      "stateMutability": "nonpayable",
      "type": "constructor"
    },
    {
      "inputs": [],
      "name": "bondingCurve",
      "outputs": [
        {
          "internalType": "address",
          "name": "",
          "type": "address"
        }
      ],
      "stateMutability": "view",
      "type": "function"
    },
    {
      "inputs": [],
      "name": "buyEventNum",
      "outputs": [
        {
          "internalType": "uint256",
          "name": "",
          "type": "uint256"
        }
      ],
      "stateMutability": "view",
      "type": "function"
    },
    {
      "inputs": [],
      "name": "collection",
      "outputs": [
        {
          "internalType": "address",
          "name": "",
          "type": "address"
        }
      ],
      "stateMutability": "view",
      "type": "function"
    },
    {
      "inputs": [],
      "name": "getAllHoldIds",
      "outputs": [
        {
          "internalType": "uint256[]",
          "name": "",
          "type": "uint256[]"
        }
      ],
      "stateMutability": "view",
      "type": "function"
    },
    {
      "inputs": [
        {
          "internalType": "uint256",
          "name": "_itemNum",
          "type": "uint256"
        },
        {
          "internalType": "uint256",
          "name": "_spotPrice",
          "type": "uint256"
        }
      ],
      "name": "getCalcBuyInfo",
      "outputs": [
        {
          "internalType": "uint256",
          "name": "",
          "type": "uint256"
        }
      ],
      "stateMutability": "view",
      "type": "function"
    },
    {
      "inputs": [
        {
          "internalType": "uint256",
          "name": "_itemNum",
          "type": "uint256"
        },
        {
          "internalType": "uint256",
          "name": "_spotPrice",
          "type": "uint256"
        }
      ],
      "name": "getCalcSellInfo",
      "outputs": [
        {
          "internalType": "uint256",
          "name": "",
          "type": "uint256"
        }
      ],
      "stateMutability": "view",
      "type": "function"
    },
    {
      "inputs": [],
      "name": "getPoolInfo",
      "outputs": [
        {
          "components": [
            {
              "internalType": "uint256",
              "name": "spotPrice",
              "type": "uint256"
            },
            {
              "internalType": "uint256",
              "name": "delta",
              "type": "uint256"
            },
            {
              "internalType": "uint256",
              "name": "spread",
              "type": "uint256"
            },
            {
              "internalType": "uint256",
              "name": "buyNum",
              "type": "uint256"
            },
            {
              "internalType": "uint256",
              "name": "sellNum",
              "type": "uint256"
            }
          ],
          "internalType": "struct BasePool.PoolInfo",
          "name": "",
          "type": "tuple"
        }
      ],
      "stateMutability": "view",
      "type": "function"
    },
    {
      "inputs": [],
      "name": "getUserInfo",
      "outputs": [
        {
          "components": [
            {
              "internalType": "uint256",
              "name": "initBuyNum",
              "type": "uint256"
            },
            {
              "internalType": "uint256",
              "name": "initSellNum",
              "type": "uint256"
            },
            {
              "internalType": "uint256",
              "name": "initSellAmount",
              "type": "uint256"
            },
            {
              "internalType": "uint256",
              "name": "totalNFTpoint",
              "type": "uint256"
            },
            {
              "internalType": "uint256",
              "name": "totalFTpoint",
              "type": "uint256"
            }
          ],
          "internalType": "struct BasePool.UserInfo",
          "name": "",
          "type": "tuple"
        }
      ],
      "stateMutability": "view",
      "type": "function"
    },
    {
      "inputs": [],
      "name": "getUserStakeFee",
      "outputs": [
        {
          "internalType": "uint256",
          "name": "",
          "type": "uint256"
        }
      ],
      "stateMutability": "view",
      "type": "function"
    },
    {
      "inputs": [
        {
          "internalType": "uint256",
          "name": "",
          "type": "uint256"
        }
      ],
      "name": "holdIds",
      "outputs": [
        {
          "internalType": "uint256",
          "name": "",
          "type": "uint256"
        }
      ],
      "stateMutability": "view",
      "type": "function"
    },
    {
      "inputs": [],
      "name": "isOtherStake",
      "outputs": [
        {
          "internalType": "bool",
          "name": "",
          "type": "bool"
        }
      ],
      "stateMutability": "view",
      "type": "function"
    },
    {
      "inputs": [],
      "name": "isPair",
      "outputs": [
        {
          "internalType": "bool",
          "name": "",
          "type": "bool"
        }
      ],
      "stateMutability": "view",
      "type": "function"
    },
    {
      "inputs": [
        {
          "internalType": "address",
          "name": "",
          "type": "address"
        },
        {
          "internalType": "address",
          "name": "",
          "type": "address"
        },
        {
          "internalType": "uint256",
          "name": "",
          "type": "uint256"
        },
        {
          "internalType": "bytes",
          "name": "",
          "type": "bytes"
        }
      ],
      "name": "onERC721Received",
      "outputs": [
        {
          "internalType": "bytes4",
          "name": "",
          "type": "bytes4"
        }
      ],
      "stateMutability": "nonpayable",
      "type": "function"
    },
    {
      "inputs": [],
      "name": "owner",
      "outputs": [
        {
          "internalType": "address",
          "name": "",
          "type": "address"
        }
      ],
      "stateMutability": "view",
      "type": "function"
    },
    {
      "inputs": [],
      "name": "paymentToken",
      "outputs": [
        {
          "internalType": "address",
          "name": "",
          "type": "address"
        }
      ],
      "stateMutability": "view",
      "type": "function"
    },
    {
      "inputs": [],
      "name": "poolInfo",
      "outputs": [
        {
          "internalType": "uint256",
          "name": "spotPrice",
          "type": "uint256"
        },
        {
          "internalType": "uint256",
          "name": "delta",
          "type": "uint256"
        },
        {
          "internalType": "uint256",
          "name": "spread",
          "type": "uint256"
        },
        {
          "internalType": "uint256",
          "name": "buyNum",
          "type": "uint256"
        },
        {
          "internalType": "uint256",
          "name": "sellNum",
          "type": "uint256"
        }
      ],
      "stateMutability": "view",
      "type": "function"
    },
    {
      "inputs": [],
      "name": "protocolFeeRatio",
      "outputs": [
        {
          "internalType": "uint256",
          "name": "",
          "type": "uint256"
        }
      ],
      "stateMutability": "view",
      "type": "function"
    },
    {
      "inputs": [],
      "name": "router",
      "outputs": [
        {
          "internalType": "address",
          "name": "",
          "type": "address"
        }
      ],
      "stateMutability": "view",
      "type": "function"
    },
    {
      "inputs": [],
      "name": "sellEventNum",
      "outputs": [
        {
          "internalType": "uint256",
          "name": "",
          "type": "uint256"
        }
      ],
      "stateMutability": "view",
      "type": "function"
    },
    {
      "inputs": [
        {
          "internalType": "uint256",
          "name": "_newDelta",
          "type": "uint256"
        }
      ],
      "name": "setDelta",
      "outputs": [],
      "stateMutability": "nonpayable",
      "type": "function"
    },
    {
      "inputs": [
        {
          "internalType": "uint256",
          "name": "_newProtocolFeeRatio",
          "type": "uint256"
        }
      ],
      "name": "setProtocolFeeRatio",
      "outputs": [],
      "stateMutability": "nonpayable",
      "type": "function"
    },
    {
      "inputs": [
        {
          "internalType": "address",
          "name": "_newRouter",
          "type": "address"
        }
      ],
      "name": "setRouter",
      "outputs": [],
      "stateMutability": "nonpayable",
      "type": "function"
    },
    {
      "inputs": [
        {
          "internalType": "uint256",
          "name": "_newSpotPrice",
          "type": "uint256"
        }
      ],
      "name": "setSpotPrice",
      "outputs": [],
      "stateMutability": "nonpayable",
      "type": "function"
    },
    {
      "inputs": [
        {
          "internalType": "uint256",
          "name": "_newSpread",
          "type": "uint256"
        }
      ],
      "name": "setSpread",
      "outputs": [],
      "stateMutability": "nonpayable",
      "type": "function"
    },
    {
      "inputs": [
        {
          "internalType": "uint256",
          "name": "_itemNum",
          "type": "uint256"
        },
        {
          "internalType": "address",
          "name": "_user",
          "type": "address"
        }
      ],
      "name": "stakeFT",
      "outputs": [],
      "stateMutability": "payable",
      "type": "function"
    },
    {
      "inputs": [],
      "name": "stakeFTprice",
      "outputs": [
        {
          "internalType": "uint256",
          "name": "",
          "type": "uint256"
        }
      ],
      "stateMutability": "view",
      "type": "function"
    },
    {
      "inputs": [
        {
          "internalType": "uint256[]",
          "name": "_tokenIds",
          "type": "uint256[]"
        },
        {
          "internalType": "address",
          "name": "_user",
          "type": "address"
        }
      ],
      "name": "stakeNFT",
      "outputs": [],
      "stateMutability": "nonpayable",
      "type": "function"
    },
    {
      "inputs": [],
      "name": "stakeNFTprice",
      "outputs": [
        {
          "internalType": "uint256",
          "name": "",
          "type": "uint256"
        }
      ],
      "stateMutability": "view",
      "type": "function"
    },
    {
      "inputs": [
        {
          "internalType": "uint256[]",
          "name": "_tokenIds",
          "type": "uint256[]"
        },
        {
          "internalType": "address",
          "name": "_user",
          "type": "address"
        }
      ],
      "name": "swapFTforNFT",
      "outputs": [
        {
          "internalType": "uint256",
          "name": "_protocolFee",
          "type": "uint256"
        }
      ],
      "stateMutability": "payable",
      "type": "function"
    },
    {
      "inputs": [
        {
          "internalType": "uint256[]",
          "name": "_tokenIds",
          "type": "uint256[]"
        },
        {
          "internalType": "uint256",
          "name": "_minExpectFee",
          "type": "uint256"
        },
        {
          "internalType": "address",
          "name": "_user",
          "type": "address"
        }
      ],
      "name": "swapNFTforFT",
      "outputs": [
        {
          "internalType": "uint256",
          "name": "_protocolFee",
          "type": "uint256"
        }
      ],
      "stateMutability": "payable",
      "type": "function"
    },
    {
      "inputs": [],
      "name": "totalFee",
      "outputs": [
        {
          "internalType": "uint256",
          "name": "",
          "type": "uint256"
        }
      ],
      "stateMutability": "view",
      "type": "function"
    },
    {
      "inputs": [],
      "name": "userInfo",
      "outputs": [
        {
          "internalType": "uint256",
          "name": "initBuyNum",
          "type": "uint256"
        },
        {
          "internalType": "uint256",
          "name": "initSellNum",
          "type": "uint256"
        },
        {
          "internalType": "uint256",
          "name": "initSellAmount",
          "type": "uint256"
        },
        {
          "internalType": "uint256",
          "name": "totalNFTpoint",
          "type": "uint256"
        },
        {
          "internalType": "uint256",
          "name": "totalFTpoint",
          "type": "uint256"
        }
      ],
      "stateMutability": "view",
      "type": "function"
    },
    {
      "inputs": [
        {
          "internalType": "uint256",
          "name": "_userSellNum",
          "type": "uint256"
        },
        {
          "internalType": "uint256[]",
          "name": "_tokenIds",
          "type": "uint256[]"
        },
        {
          "internalType": "address",
          "name": "_user",
          "type": "address"
        }
      ],
      "name": "withdrawFT",
      "outputs": [],
      "stateMutability": "payable",
      "type": "function"
    },
    {
      "inputs": [
        {
          "internalType": "address",
          "name": "_user",
          "type": "address"
        }
      ],
      "name": "withdrawFee",
      "outputs": [],
      "stateMutability": "payable",
      "type": "function"
    },
    {
      "inputs": [
        {
          "internalType": "uint256[]",
          "name": "_tokenIds",
          "type": "uint256[]"
        },
        {
          "internalType": "address",
          "name": "_user",
          "type": "address"
        }
      ],
      "name": "withdrawNFT",
      "outputs": [],
      "stateMutability": "payable",
      "type": "function"
    }
  ],
  "bytecode": "0x6080604052670de0b6b3a76400006000553480156200001d57600080fd5b5060405162004793380380620047938339818101604052810190620000439190620002a5565b87600260006101000a81548173ffffffffffffffffffffffffffffffffffffffff021916908373ffffffffffffffffffffffffffffffffffffffff16021790555086600160006101000a81548173ffffffffffffffffffffffffffffffffffffffff021916908373ffffffffffffffffffffffffffffffffffffffff16021790555085600d600001819055508560098190555085600a8190555084600d6001018190555083600d600201819055508260068190555081600360006101000a81548173ffffffffffffffffffffffffffffffffffffffff021916908373ffffffffffffffffffffffffffffffffffffffff1602179055506000600b60006101000a81548160ff0219169083151502179055506000600b60016101000a81548160ff0219169083151502179055506000600560006101000a81548173ffffffffffffffffffffffffffffffffffffffff021916908373ffffffffffffffffffffffffffffffffffffffff16021790555080600460006101000a81548173ffffffffffffffffffffffffffffffffffffffff021916908373ffffffffffffffffffffffffffffffffffffffff16021790555050505050505050506200036e565b600080fd5b600073ffffffffffffffffffffffffffffffffffffffff82169050919050565b6000620002328262000205565b9050919050565b620002448162000225565b81146200025057600080fd5b50565b600081519050620002648162000239565b92915050565b6000819050919050565b6200027f816200026a565b81146200028b57600080fd5b50565b6000815190506200029f8162000274565b92915050565b600080600080600080600080610100898b031215620002c957620002c862000200565b5b6000620002d98b828c0162000253565b9850506020620002ec8b828c0162000253565b9750506040620002ff8b828c016200028e565b9650506060620003128b828c016200028e565b9550506080620003258b828c016200028e565b94505060a0620003388b828c016200028e565b93505060c06200034b8b828c0162000253565b92505060e06200035e8b828c0162000253565b9150509295985092959890939650565b614415806200037e6000396000f3fe6080604052600436106102045760003560e01c80635d8d1585116101185780638da5cb5b116100a0578063c0d786551161006f578063c0d7865514610715578063eb119c971461073e578063eff1d50e1461077b578063f887ea40146107a6578063fc5ad2df146107d157610204565b80638da5cb5b1461067a578063a09bf8c2146106a5578063b66a261c146106c1578063bbd265ab146106ea57610204565b80637a27d9f6116100e75780637a27d9f6146105915780637b6880ca146105bc5780637de1e536146105e757806388e5cd1f14610612578063895af8711461064f57610204565b80635d8d1585146104d557806360246c881461050057806365b962311461052b57806370eb81e41461056857610204565b80632c7e49151161019b57806341ede57e1161016a57806341ede57e1461040257806343a6f4ee1461042b5780634c4cbac41461045a57806350902c171461048a5780635a2f3d09146104a657610204565b80632c7e4915146103675780632f7e0b2e146103835780633013ce29146103ac57806340f60785146103d757610204565b80631dbf9cba116101d75780631dbf9cba146102b65780631df4ccfc146102e1578063244117b41461030c5780632767fa4b1461033c57610204565b8063025ff0a51461020957806302b6b7b314610232578063150b7a021461025d5780631ac3ddeb1461029a575b600080fd5b34801561021557600080fd5b50610230600480360381019061022b91906132df565b6107fc565b005b34801561023e57600080fd5b50610247610899565b6040516102549190613327565b60405180910390f35b34801561026957600080fd5b50610284600480360381019061027f91906134e6565b6108ac565b60405161029191906135a4565b60405180910390f35b6102b460048036038101906102af91906135bf565b6108c0565b005b3480156102c257600080fd5b506102cb610a49565b6040516102d891906136aa565b60405180910390f35b3480156102ed57600080fd5b506102f6610aa1565b60405161030391906136db565b60405180910390f35b61032660048036038101906103219190613756565b610aa7565b60405161033391906136db565b60405180910390f35b34801561034857600080fd5b50610351610e74565b60405161035e91906136db565b60405180910390f35b610381600480360381019061037c91906137ca565b610e7a565b005b34801561038f57600080fd5b506103aa60048036038101906103a591906137ca565b61150f565b005b3480156103b857600080fd5b506103c16117f8565b6040516103ce9190613839565b60405180910390f35b3480156103e357600080fd5b506103ec61181e565b6040516103f991906136db565b60405180910390f35b34801561040e57600080fd5b50610429600480360381019061042491906132df565b611828565b005b34801561043757600080fd5b506104406118c2565b604051610451959493929190613854565b60405180910390f35b610474600480360381019061046f91906137ca565b6118e6565b60405161048191906136db565b60405180910390f35b6104a4600480360381019061049f91906138a7565b611c7d565b005b3480156104b257600080fd5b506104bb612394565b6040516104cc959493929190613854565b60405180910390f35b3480156104e157600080fd5b506104ea6123b8565b6040516104f79190613983565b60405180910390f35b34801561050c57600080fd5b50610515612404565b6040516105229190613a06565b60405180910390f35b34801561053757600080fd5b50610552600480360381019061054d9190613a21565b612450565b60405161055f91906136db565b60405180910390f35b34801561057457600080fd5b5061058f600480360381019061058a91906132df565b61250f565b005b34801561059d57600080fd5b506105a66125ac565b6040516105b391906136db565b60405180910390f35b3480156105c857600080fd5b506105d16125b2565b6040516105de91906136db565b60405180910390f35b3480156105f357600080fd5b506105fc6125b8565b6040516106099190613839565b60405180910390f35b34801561061e57600080fd5b5061063960048036038101906106349190613a21565b6125de565b60405161064691906136db565b60405180910390f35b34801561065b57600080fd5b5061066461269d565b60405161067191906136db565b60405180910390f35b34801561068657600080fd5b5061068f6126a3565b60405161069c9190613839565b60405180910390f35b6106bf60048036038101906106ba9190613a61565b6126c9565b005b3480156106cd57600080fd5b506106e860048036038101906106e391906132df565b6129fd565b005b3480156106f657600080fd5b506106ff612a9a565b60405161070c9190613327565b60405180910390f35b34801561072157600080fd5b5061073c600480360381019061073791906135bf565b612aad565b005b34801561074a57600080fd5b50610765600480360381019061076091906132df565b612b81565b60405161077291906136db565b60405180910390f35b34801561078757600080fd5b50610790612ba5565b60405161079d9190613839565b60405180910390f35b3480156107b257600080fd5b506107bb612bcb565b6040516107c89190613839565b60405180910390f35b3480156107dd57600080fd5b506107e6612bf1565b6040516107f391906136db565b60405180910390f35b600460009054906101000a900473ffffffffffffffffffffffffffffffffffffffff1673ffffffffffffffffffffffffffffffffffffffff163373ffffffffffffffffffffffffffffffffffffffff161461088c576040517f08c379a000000000000000000000000000000000000000000000000000000000815260040161088390613afe565b60405180910390fd5b80600d6001018190555050565b600b60019054906101000a900460ff1681565b600063150b7a0260e01b9050949350505050565b80600360009054906101000a900473ffffffffffffffffffffffffffffffffffffffff1673ffffffffffffffffffffffffffffffffffffffff163373ffffffffffffffffffffffffffffffffffffffff1614610951576040517f08c379a000000000000000000000000000000000000000000000000000000000815260040161094890613b6a565b60405180910390fd5b600460009054906101000a900473ffffffffffffffffffffffffffffffffffffffff1673ffffffffffffffffffffffffffffffffffffffff168173ffffffffffffffffffffffffffffffffffffffff16146109e1576040517f08c379a00000000000000000000000000000000000000000000000000000000081526004016109d890613afe565b60405180910390fd5b60006012549050600081116109f557600080fd5b60006012819055508273ffffffffffffffffffffffffffffffffffffffff166108fc829081150290604051600060405180830381858888f19350505050158015610a43573d6000803e3d6000fd5b50505050565b6060600c805480602002602001604051908101604052809291908181526020018280548015610a9757602002820191906000526020600020905b815481526020019060010190808311610a83575b5050505050905090565b60125481565b60003373ffffffffffffffffffffffffffffffffffffffff16600360009054906101000a900473ffffffffffffffffffffffffffffffffffffffff1673ffffffffffffffffffffffffffffffffffffffff1614610b39576040517f08c379a0000000000000000000000000000000000000000000000000000000008152600401610b3090613bd6565b60405180910390fd5b60008585905090506000806000806000600160009054906101000a900473ffffffffffffffffffffffffffffffffffffffff1673ffffffffffffffffffffffffffffffffffffffff1663ed67cc91600d60000154600d60010154600d600201548a6040518563ffffffff1660e01b8152600401610bb99493929190613bf6565b60a060405180830381865afa158015610bd6573d6000803e3d6000fd5b505050506040513d601f19601f82011682018060405250810190610bfa9190613c75565b9450945094509450945060006002811115610c1857610c17613cf0565b5b856002811115610c2b57610c2a613cf0565b5b14610c6b576040517f08c379a0000000000000000000000000000000000000000000000000000000008152600401610c6290613d6b565b60405180910390fd5b600d60040154861115610cb3576040517f08c379a0000000000000000000000000000000000000000000000000000000008152600401610caa90613dd7565b60405180910390fd5b88811015610cf6576040517f08c379a0000000000000000000000000000000000000000000000000000000008152600401610ced90613e43565b60405180910390fd5b80471015610d39576040517f08c379a0000000000000000000000000000000000000000000000000000000008152600401610d3090613eaf565b60405180910390fd5b8560086000828254610d4b9190613efe565b9250508190555085600d6004016000828254610d679190613f32565b9250508190555085600d6003016000828254610d839190613efe565b92505081905550610d92612bf7565b9650610d9f848484612e0f565b8773ffffffffffffffffffffffffffffffffffffffff166108fc829081150290604051600060405180830381858888f19350505050158015610de5573d6000803e3d6000fd5b506000871115610e5957600360009054906101000a900473ffffffffffffffffffffffffffffffffffffffff1673ffffffffffffffffffffffffffffffffffffffff166108fc889081150290604051600060405180830381858888f19350505050158015610e57573d6000803e3d6000fd5b505b610e668b8b888b30612e86565b505050505050949350505050565b60095481565b80600360009054906101000a900473ffffffffffffffffffffffffffffffffffffffff1673ffffffffffffffffffffffffffffffffffffffff163373ffffffffffffffffffffffffffffffffffffffff1614610f0b576040517f08c379a0000000000000000000000000000000000000000000000000000000008152600401610f0290613b6a565b60405180910390fd5b600460009054906101000a900473ffffffffffffffffffffffffffffffffffffffff1673ffffffffffffffffffffffffffffffffffffffff168173ffffffffffffffffffffffffffffffffffffffff1614610f9b576040517f08c379a0000000000000000000000000000000000000000000000000000000008152600401610f9290613afe565b60405180910390fd5b6000848490509050600060136000015490506000601254905082600d600301541015610ffc576040517f08c379a0000000000000000000000000000000000000000000000000000000008152600401610ff390613fb2565b60405180910390fd5b8282148061101957508282118015611018575082600d60030154145b5b611058576040517f08c379a000000000000000000000000000000000000000000000000000000000815260040161104f9061401e565b60405180910390fd5b82600d600301600082825461106d9190613f32565b925050819055506000601360000181905550600060128190555060008311156111be576000806000600160009054906101000a900473ffffffffffffffffffffffffffffffffffffffff1673ffffffffffffffffffffffffffffffffffffffff1663ed67cc91600954600d600101546000896040518563ffffffff1660e01b81526004016110fe9493929190614083565b60a060405180830381865afa15801561111b573d6000803e3d6000fd5b505050506040513d601f19601f8201168201806040525081019061113f9190613c75565b50509250925092506000600281111561115b5761115a613cf0565b5b83600281111561116e5761116d613cf0565b5b146111ae576040517f08c379a00000000000000000000000000000000000000000000000000000000081526004016111a590613d6b565b60405180910390fd5b6111ba82826000612fd1565b5050505b828211156114a857600083836111d49190613f32565b9050600080600160009054906101000a900473ffffffffffffffffffffffffffffffffffffffff1673ffffffffffffffffffffffffffffffffffffffff1663ed67cc91600954600d600101546000876040518563ffffffff1660e01b81526004016112429493929190614083565b60a060405180830381865afa15801561125f573d6000803e3d6000fd5b505050506040513d601f19601f820116820180604052508101906112839190613c75565b945050505091506000600281111561129e5761129d613cf0565b5b8260028111156112b1576112b0613cf0565b5b146112f1576040517f08c379a00000000000000000000000000000000000000000000000000000000081526004016112e890613d6b565b60405180910390fd5b6000806000600160009054906101000a900473ffffffffffffffffffffffffffffffffffffffff1673ffffffffffffffffffffffffffffffffffffffff16630320bc4a600a54600d6001015460008a6040518563ffffffff1660e01b815260040161135f9493929190614083565b60a060405180830381865afa15801561137c573d6000803e3d6000fd5b505050506040513d601f19601f820116820180604052508101906113a09190613c75565b5050925092509250600060028111156113bc576113bb613cf0565b5b8360028111156113cf576113ce613cf0565b5b1461140f576040517f08c379a000000000000000000000000000000000000000000000000000000000815260040161140690613d6b565b60405180910390fd5b61141b82826000613042565b85600d60040160008282546114309190613f32565b9250508190555085600760008282546114499190613f32565b9250508190555060008411156114a1578a73ffffffffffffffffffffffffffffffffffffffff166108fc859081150290604051600060405180830381858888f1935050505015801561149f573d6000803e3d6000fd5b505b5050505050505b6114b58787853089612e86565b6000811115611506578473ffffffffffffffffffffffffffffffffffffffff166108fc829081150290604051600060405180830381858888f19350505050158015611504573d6000803e3d6000fd5b505b50505050505050565b80600360009054906101000a900473ffffffffffffffffffffffffffffffffffffffff1673ffffffffffffffffffffffffffffffffffffffff163373ffffffffffffffffffffffffffffffffffffffff16146115a0576040517f08c379a000000000000000000000000000000000000000000000000000000000815260040161159790613b6a565b60405180910390fd5b600460009054906101000a900473ffffffffffffffffffffffffffffffffffffffff1673ffffffffffffffffffffffffffffffffffffffff168173ffffffffffffffffffffffffffffffffffffffff1614611630576040517f08c379a000000000000000000000000000000000000000000000000000000000815260040161162790613afe565b60405180910390fd5b60008484905090506000811161167b576040517f08c379a000000000000000000000000000000000000000000000000000000000815260040161167290614114565b60405180910390fd5b6000806000600160009054906101000a900473ffffffffffffffffffffffffffffffffffffffff1673ffffffffffffffffffffffffffffffffffffffff16630320bc4a600954600d60010154600d60020154886040518563ffffffff1660e01b81526004016116ed9493929190613bf6565b60a060405180830381865afa15801561170a573d6000803e3d6000fd5b505050506040513d601f19601f8201168201806040525081019061172e9190613c75565b50509250925092506000600281111561174a57611749613cf0565b5b83600281111561175d5761175c613cf0565b5b1461179d576040517f08c379a000000000000000000000000000000000000000000000000000000000815260040161179490613d6b565b60405180910390fd5b83601360000160008282546117b29190613efe565b9250508190555083600d60030160008282546117ce9190613efe565b925050819055506117e182826000612fd1565b6117ee8888868930612e86565b5050505050505050565b600560009054906101000a900473ffffffffffffffffffffffffffffffffffffffff1681565b6000601254905090565b3373ffffffffffffffffffffffffffffffffffffffff16600360009054906101000a900473ffffffffffffffffffffffffffffffffffffffff1673ffffffffffffffffffffffffffffffffffffffff16146118b8576040517f08c379a00000000000000000000000000000000000000000000000000000000081526004016118af90613bd6565b60405180910390fd5b8060068190555050565b60138060000154908060010154908060020154908060030154908060040154905085565b60003373ffffffffffffffffffffffffffffffffffffffff16600360009054906101000a900473ffffffffffffffffffffffffffffffffffffffff1673ffffffffffffffffffffffffffffffffffffffff1614611978576040517f08c379a000000000000000000000000000000000000000000000000000000000815260040161196f90613bd6565b60405180910390fd5b60008484905090506000806000806000600160009054906101000a900473ffffffffffffffffffffffffffffffffffffffff1673ffffffffffffffffffffffffffffffffffffffff16630320bc4a600d60000154600d60010154600d600201548a6040518563ffffffff1660e01b81526004016119f89493929190613bf6565b60a060405180830381865afa158015611a15573d6000803e3d6000fd5b505050506040513d601f19601f82011682018060405250810190611a399190613c75565b9450945094509450945060006002811115611a5757611a56613cf0565b5b856002811115611a6a57611a69613cf0565b5b14611aaa576040517f08c379a0000000000000000000000000000000000000000000000000000000008152600401611aa190613d6b565b60405180910390fd5b600d60030154861115611af2576040517f08c379a0000000000000000000000000000000000000000000000000000000008152600401611ae990613dd7565b60405180910390fd5b80341015611b35576040517f08c379a0000000000000000000000000000000000000000000000000000000008152600401611b2c90614180565b60405180910390fd5b8560076000828254611b479190613efe565b9250508190555085600d6003016000828254611b639190613f32565b9250508190555085600d6004016000828254611b7f9190613efe565b92505081905550611b8e612bf7565b9650611b9b848484612e0f565b8773ffffffffffffffffffffffffffffffffffffffff166108fc8234611bc19190613f32565b9081150290604051600060405180830381858888f19350505050158015611bec573d6000803e3d6000fd5b506000871115611c6057600360009054906101000a900473ffffffffffffffffffffffffffffffffffffffff1673ffffffffffffffffffffffffffffffffffffffff166108fc889081150290604051600060405180830381858888f19350505050158015611c5e573d6000803e3d6000fd5b505b611c708a8a8c8c9050308c612e86565b5050505050509392505050565b80600360009054906101000a900473ffffffffffffffffffffffffffffffffffffffff1673ffffffffffffffffffffffffffffffffffffffff163373ffffffffffffffffffffffffffffffffffffffff1614611d0e576040517f08c379a0000000000000000000000000000000000000000000000000000000008152600401611d0590613b6a565b60405180910390fd5b600460009054906101000a900473ffffffffffffffffffffffffffffffffffffffff1673ffffffffffffffffffffffffffffffffffffffff168173ffffffffffffffffffffffffffffffffffffffff1614611d9e576040517f08c379a0000000000000000000000000000000000000000000000000000000008152600401611d9590613afe565b60405180910390fd5b600084849050905060006013600201549050600087600d600401541015611dfa576040517f08c379a0000000000000000000000000000000000000000000000000000000008152600401611df190613fb2565b60405180910390fd5b876013600101541480611e21575087601360010154118015611e20575087600d60040154145b5b611e60576040517f08c379a0000000000000000000000000000000000000000000000000000000008152600401611e579061401e565b60405180910390fd5b8288601360010154611e729190613f32565b14611eb2576040517f08c379a0000000000000000000000000000000000000000000000000000000008152600401611ea9906141ec565b60405180910390fd5b87600d6004016000828254611ec79190613f32565b9250508190555060006013600201819055506000881461200f576000806000600160009054906101000a900473ffffffffffffffffffffffffffffffffffffffff1673ffffffffffffffffffffffffffffffffffffffff16630320bc4a600a54600d6001015460008f6040518563ffffffff1660e01b8152600401611f4f9493929190614083565b60a060405180830381865afa158015611f6c573d6000803e3d6000fd5b505050506040513d601f19601f82011682018060405250810190611f909190613c75565b505092509250925060006002811115611fac57611fab613cf0565b5b836002811115611fbf57611fbe613cf0565b5b14611fff576040517f08c379a0000000000000000000000000000000000000000000000000000000008152600401611ff690613d6b565b60405180910390fd5b61200b82826000613042565b5050505b600060136001015490506000601360010181905550808910156122b657600080600160009054906101000a900473ffffffffffffffffffffffffffffffffffffffff1673ffffffffffffffffffffffffffffffffffffffff16630320bc4a600a54600d6001015460008f886120849190613f32565b6040518563ffffffff1660e01b81526004016120a39493929190614083565b60a060405180830381865afa1580156120c0573d6000803e3d6000fd5b505050506040513d601f19601f820116820180604052508101906120e49190613c75565b94505050509150600060028111156120ff576120fe613cf0565b5b82600281111561211257612111613cf0565b5b14612152576040517f08c379a000000000000000000000000000000000000000000000000000000000815260040161214990613d6b565b60405180910390fd5b600080600160009054906101000a900473ffffffffffffffffffffffffffffffffffffffff1673ffffffffffffffffffffffffffffffffffffffff1663ed67cc91600954600d6001015460008c6040518563ffffffff1660e01b81526004016121be9493929190614083565b60a060405180830381865afa1580156121db573d6000803e3d6000fd5b505050506040513d601f19601f820116820180604052508101906121ff9190613c75565b505050915091506000600281111561221a57612219613cf0565b5b82600281111561222d5761222c613cf0565b5b1461226d576040517f08c379a000000000000000000000000000000000000000000000000000000000815260040161226490613d6b565b60405180910390fd5b87600d60030160008282546122829190613f32565b92505081905550876008600082825461229b9190613f32565b925050819055506122ae81600080612fd1565b829550505050505b506000601254905060006012819055506000811115612317578573ffffffffffffffffffffffffffffffffffffffff166108fc829081150290604051600060405180830381858888f19350505050158015612315573d6000803e3d6000fd5b505b50600083111561232f5761232e8787853089612e86565b5b8181101561238a578473ffffffffffffffffffffffffffffffffffffffff166108fc828461235d9190613f32565b9081150290604051600060405180830381858888f19350505050158015612388573d6000803e3d6000fd5b505b5050505050505050565b600d8060000154908060010154908060020154908060030154908060040154905085565b6123c0613237565b60136040518060a001604052908160008201548152602001600182015481526020016002820154815260200160038201548152602001600482015481525050905090565b61240c613266565b600d6040518060a001604052908160008201548152602001600182015481526020016002820154815260200160038201548152602001600482015481525050905090565b600080600160009054906101000a900473ffffffffffffffffffffffffffffffffffffffff1673ffffffffffffffffffffffffffffffffffffffff16630320bc4a84600d60010154600d60020154886040518563ffffffff1660e01b81526004016124be9493929190613bf6565b60a060405180830381865afa1580156124db573d6000803e3d6000fd5b505050506040513d601f19601f820116820180604052508101906124ff9190613c75565b9450505050508091505092915050565b600460009054906101000a900473ffffffffffffffffffffffffffffffffffffffff1673ffffffffffffffffffffffffffffffffffffffff163373ffffffffffffffffffffffffffffffffffffffff161461259f576040517f08c379a000000000000000000000000000000000000000000000000000000000815260040161259690613afe565b60405180910390fd5b80600d6000018190555050565b60065481565b600a5481565b600260009054906101000a900473ffffffffffffffffffffffffffffffffffffffff1681565b600080600160009054906101000a900473ffffffffffffffffffffffffffffffffffffffff1673ffffffffffffffffffffffffffffffffffffffff1663ed67cc9184600d60010154600d60020154886040518563ffffffff1660e01b815260040161264c9493929190613bf6565b60a060405180830381865afa158015612669573d6000803e3d6000fd5b505050506040513d601f19601f8201168201806040525081019061268d9190613c75565b9450505050508091505092915050565b60085481565b600460009054906101000a900473ffffffffffffffffffffffffffffffffffffffff1681565b80600360009054906101000a900473ffffffffffffffffffffffffffffffffffffffff1673ffffffffffffffffffffffffffffffffffffffff163373ffffffffffffffffffffffffffffffffffffffff161461275a576040517f08c379a000000000000000000000000000000000000000000000000000000000815260040161275190613b6a565b60405180910390fd5b600460009054906101000a900473ffffffffffffffffffffffffffffffffffffffff1673ffffffffffffffffffffffffffffffffffffffff168173ffffffffffffffffffffffffffffffffffffffff16146127ea576040517f08c379a00000000000000000000000000000000000000000000000000000000081526004016127e190613afe565b60405180910390fd5b6000831161282d576040517f08c379a000000000000000000000000000000000000000000000000000000000815260040161282490614114565b60405180910390fd5b600080600080600160009054906101000a900473ffffffffffffffffffffffffffffffffffffffff1673ffffffffffffffffffffffffffffffffffffffff1663ed67cc91600a54600d60010154600d600201548b6040518563ffffffff1660e01b81526004016128a09493929190613bf6565b60a060405180830381865afa1580156128bd573d6000803e3d6000fd5b505050506040513d601f19601f820116820180604052508101906128e19190613c75565b945050935093509350600060028111156128fe576128fd613cf0565b5b84600281111561291157612910613cf0565b5b14612951576040517f08c379a000000000000000000000000000000000000000000000000000000000815260040161294890613d6b565b60405180910390fd5b80341015612994576040517f08c379a000000000000000000000000000000000000000000000000000000000815260040161298b90614258565b60405180910390fd5b86601360010160008282546129a99190613efe565b9250508190555080601360020160008282546129c59190613efe565b9250508190555086600d60040160008282546129e19190613efe565b925050819055506129f483836000613042565b50505050505050565b600460009054906101000a900473ffffffffffffffffffffffffffffffffffffffff1673ffffffffffffffffffffffffffffffffffffffff163373ffffffffffffffffffffffffffffffffffffffff1614612a8d576040517f08c379a0000000000000000000000000000000000000000000000000000000008152600401612a8490613afe565b60405180910390fd5b80600d6002018190555050565b600b60009054906101000a900460ff1681565b3373ffffffffffffffffffffffffffffffffffffffff16600360009054906101000a900473ffffffffffffffffffffffffffffffffffffffff1673ffffffffffffffffffffffffffffffffffffffff1614612b3d576040517f08c379a0000000000000000000000000000000000000000000000000000000008152600401612b3490613bd6565b60405180910390fd5b80600360006101000a81548173ffffffffffffffffffffffffffffffffffffffff021916908373ffffffffffffffffffffffffffffffffffffffff16021790555050565b600c8181548110612b9157600080fd5b906000526020600020016000915090505481565b600160009054906101000a900473ffffffffffffffffffffffffffffffffffffffff1681565b600360009054906101000a900473ffffffffffffffffffffffffffffffffffffffff1681565b60075481565b600080600754118015612c0c57506000600854115b15612e0b5760085460075410612d0d57600080600160009054906101000a900473ffffffffffffffffffffffffffffffffffffffff1673ffffffffffffffffffffffffffffffffffffffff1663ea363db5600d60000154600d60010154600d600201546008546006546040518663ffffffff1660e01b8152600401612c95959493929190613854565b6040805180830381865afa158015612cb1573d6000803e3d6000fd5b505050506040513d601f19601f82011682018060405250810190612cd59190614278565b915091508160128190555060085460076000828254612cf49190613f32565b9250508190555060006008819055508092505050612e0c565b6007546008541115612e0a57600080600160009054906101000a900473ffffffffffffffffffffffffffffffffffffffff1673ffffffffffffffffffffffffffffffffffffffff16634fb5d742600d60000154600d60010154600d600201546007546006546040518663ffffffff1660e01b8152600401612d92959493929190613854565b6040805180830381865afa158015612dae573d6000803e3d6000fd5b505050506040513d601f19601f82011682018060405250810190612dd29190614278565b915091508160128190555060075460086000828254612df19190613f32565b9250508190555060006007819055508092505050612e0c565b5b5b90565b60008314158015612e25575082600d6000015414155b15612e355782600d600001819055505b60008214158015612e4b575081600d6001015414155b15612e5b5781600d600101819055505b60008114158015612e71575080600d6002015414155b15612e815780600d600201819055505b505050565b60005b83811015612f4857600260009054906101000a900473ffffffffffffffffffffffffffffffffffffffff1673ffffffffffffffffffffffffffffffffffffffff1663b88d4fde8484898986818110612ee457612ee36142b8565b5b905060200201356040518463ffffffff1660e01b8152600401612f099392919061431e565b600060405180830381600087803b158015612f2357600080fd5b505af1158015612f37573d6000803e3d6000fd5b505050508080600101915050612e89565b503073ffffffffffffffffffffffffffffffffffffffff168273ffffffffffffffffffffffffffffffffffffffff1603612f8b57612f8685856130b3565b612fca565b3073ffffffffffffffffffffffffffffffffffffffff168173ffffffffffffffffffffffffffffffffffffffff1603612fc957612fc885856131cf565b5b5b5050505050565b60008314158015612fe457508260095414155b15612ff157826009819055505b60008214158015613007575081600d6001015414155b156130175781600d600101819055505b6000811415801561302d575080600d6002015414155b1561303d5780600d600201819055505b505050565b60008314158015613055575082600a5414155b156130625782600a819055505b60008214158015613078575081600d6001015414155b156130885781600d600101819055505b6000811415801561309e575080600d6002015414155b156130ae5780600d600201819055505b505050565b60005b828290508110156131ca576000600c80549050905060005b818110156131b5578484848181106130e9576130e86142b8565b5b90506020020135600c8281548110613104576131036142b8565b5b9060005260206000200154036131a2576001826131219190613f32565b811461317557600c6001836131369190613f32565b81548110613147576131466142b8565b5b9060005260206000200154600c8281548110613166576131656142b8565b5b90600052602060002001819055505b600c80548061318757613186614368565b5b600190038181906000526020600020016000905590556131b5565b80806131ad90614397565b9150506130ce565b505080806131c290614397565b9150506130b6565b505050565b60005b8282905081101561323257600c8383838181106131f2576131f16142b8565b5b905060200201359080600181540180825580915050600190039060005260206000200160009091909190915055808061322a90614397565b9150506131d2565b505050565b6040518060a0016040528060008152602001600081526020016000815260200160008152602001600081525090565b6040518060a0016040528060008152602001600081526020016000815260200160008152602001600081525090565b6000604051905090565b600080fd5b600080fd5b6000819050919050565b6132bc816132a9565b81146132c757600080fd5b50565b6000813590506132d9816132b3565b92915050565b6000602082840312156132f5576132f461329f565b5b6000613303848285016132ca565b91505092915050565b60008115159050919050565b6133218161330c565b82525050565b600060208201905061333c6000830184613318565b92915050565b600073ffffffffffffffffffffffffffffffffffffffff82169050919050565b600061336d82613342565b9050919050565b61337d81613362565b811461338857600080fd5b50565b60008135905061339a81613374565b92915050565b600080fd5b600080fd5b6000601f19601f8301169050919050565b7f4e487b7100000000000000000000000000000000000000000000000000000000600052604160045260246000fd5b6133f3826133aa565b810181811067ffffffffffffffff82111715613412576134116133bb565b5b80604052505050565b6000613425613295565b905061343182826133ea565b919050565b600067ffffffffffffffff821115613451576134506133bb565b5b61345a826133aa565b9050602081019050919050565b82818337600083830152505050565b600061348961348484613436565b61341b565b9050828152602081018484840111156134a5576134a46133a5565b5b6134b0848285613467565b509392505050565b600082601f8301126134cd576134cc6133a0565b5b81356134dd848260208601613476565b91505092915050565b60008060008060808587031215613500576134ff61329f565b5b600061350e8782880161338b565b945050602061351f8782880161338b565b9350506040613530878288016132ca565b925050606085013567ffffffffffffffff811115613551576135506132a4565b5b61355d878288016134b8565b91505092959194509250565b60007fffffffff0000000000000000000000000000000000000000000000000000000082169050919050565b61359e81613569565b82525050565b60006020820190506135b96000830184613595565b92915050565b6000602082840312156135d5576135d461329f565b5b60006135e38482850161338b565b91505092915050565b600081519050919050565b600082825260208201905092915050565b6000819050602082019050919050565b613621816132a9565b82525050565b60006136338383613618565b60208301905092915050565b6000602082019050919050565b6000613657826135ec565b61366181856135f7565b935061366c83613608565b8060005b8381101561369d5781516136848882613627565b975061368f8361363f565b925050600181019050613670565b5085935050505092915050565b600060208201905081810360008301526136c4818461364c565b905092915050565b6136d5816132a9565b82525050565b60006020820190506136f060008301846136cc565b92915050565b600080fd5b600080fd5b60008083601f840112613716576137156133a0565b5b8235905067ffffffffffffffff811115613733576137326136f6565b5b60208301915083602082028301111561374f5761374e6136fb565b5b9250929050565b600080600080606085870312156137705761376f61329f565b5b600085013567ffffffffffffffff81111561378e5761378d6132a4565b5b61379a87828801613700565b945094505060206137ad878288016132ca565b92505060406137be8782880161338b565b91505092959194509250565b6000806000604084860312156137e3576137e261329f565b5b600084013567ffffffffffffffff811115613801576138006132a4565b5b61380d86828701613700565b935093505060206138208682870161338b565b9150509250925092565b61383381613362565b82525050565b600060208201905061384e600083018461382a565b92915050565b600060a08201905061386960008301886136cc565b61387660208301876136cc565b61388360408301866136cc565b61389060608301856136cc565b61389d60808301846136cc565b9695505050505050565b600080600080606085870312156138c1576138c061329f565b5b60006138cf878288016132ca565b945050602085013567ffffffffffffffff8111156138f0576138ef6132a4565b5b6138fc87828801613700565b9350935050604061390f8782880161338b565b91505092959194509250565b60a0820160008201516139316000850182613618565b5060208201516139446020850182613618565b5060408201516139576040850182613618565b50606082015161396a6060850182613618565b50608082015161397d6080850182613618565b50505050565b600060a082019050613998600083018461391b565b92915050565b60a0820160008201516139b46000850182613618565b5060208201516139c76020850182613618565b5060408201516139da6040850182613618565b5060608201516139ed6060850182613618565b506080820151613a006080850182613618565b50505050565b600060a082019050613a1b600083018461399e565b92915050565b60008060408385031215613a3857613a3761329f565b5b6000613a46858286016132ca565b9250506020613a57858286016132ca565b9150509250929050565b60008060408385031215613a7857613a7761329f565b5b6000613a86858286016132ca565b9250506020613a978582860161338b565b9150509250929050565b600082825260208201905092915050565b7f4e6f74204f776e65720000000000000000000000000000000000000000000000600082015250565b6000613ae8600983613aa1565b9150613af382613ab2565b602082019050919050565b60006020820190508181036000830152613b1781613adb565b9050919050565b7f4e6f7420526f7574657200000000000000000000000000000000000000000000600082015250565b6000613b54600a83613aa1565b9150613b5f82613b1e565b602082019050919050565b60006020820190508181036000830152613b8381613b47565b9050919050565b7f6f6e6c79526f7574657200000000000000000000000000000000000000000000600082015250565b6000613bc0600a83613aa1565b9150613bcb82613b8a565b602082019050919050565b60006020820190508181036000830152613bef81613bb3565b9050919050565b6000608082019050613c0b60008301876136cc565b613c1860208301866136cc565b613c2560408301856136cc565b613c3260608301846136cc565b95945050505050565b60038110613c4857600080fd5b50565b600081519050613c5a81613c3b565b92915050565b600081519050613c6f816132b3565b92915050565b600080600080600060a08688031215613c9157613c9061329f565b5b6000613c9f88828901613c4b565b9550506020613cb088828901613c60565b9450506040613cc188828901613c60565b9350506060613cd288828901613c60565b9250506080613ce388828901613c60565b9150509295509295909350565b7f4e487b7100000000000000000000000000000000000000000000000000000000600052602160045260246000fd5b7f4243204572726f72000000000000000000000000000000000000000000000000600082015250565b6000613d55600883613aa1565b9150613d6082613d1f565b602082019050919050565b60006020820190508181036000830152613d8481613d48565b9050919050565b7f4e6f7420656e6f756768206c6971756964697479000000000000000000000000600082015250565b6000613dc1601483613aa1565b9150613dcc82613d8b565b602082019050919050565b60006020820190508181036000830152613df081613db4565b9050919050565b7f4e6f742065787065637465642076616c75650000000000000000000000000000600082015250565b6000613e2d601283613aa1565b9150613e3882613df7565b602082019050919050565b60006020820190508181036000830152613e5c81613e20565b9050919050565b7f4e6f7420656e6f7567682062616c616e63650000000000000000000000000000600082015250565b6000613e99601283613aa1565b9150613ea482613e63565b602082019050919050565b60006020820190508181036000830152613ec881613e8c565b9050919050565b7f4e487b7100000000000000000000000000000000000000000000000000000000600052601160045260246000fd5b6000613f09826132a9565b9150613f14836132a9565b9250828201905080821115613f2c57613f2b613ecf565b5b92915050565b6000613f3d826132a9565b9150613f48836132a9565b9250828203905081811115613f6057613f5f613ecf565b5b92915050565b7f506f6f6c206e6f7420656e6f756768204e465400000000000000000000000000600082015250565b6000613f9c601383613aa1565b9150613fa782613f66565b602082019050919050565b60006020820190508181036000830152613fcb81613f8f565b9050919050565b7f536f6d657468696e672069732077726f6e672e00000000000000000000000000600082015250565b6000614008601383613aa1565b915061401382613fd2565b602082019050919050565b6000602082019050818103600083015261403781613ffb565b9050919050565b6000819050919050565b6000819050919050565b600061406d6140686140638461403e565b614048565b6132a9565b9050919050565b61407d81614052565b82525050565b600060808201905061409860008301876136cc565b6140a560208301866136cc565b6140b26040830185614074565b6140bf60608301846136cc565b95945050505050565b7f4e6f742030000000000000000000000000000000000000000000000000000000600082015250565b60006140fe600583613aa1565b9150614109826140c8565b602082019050919050565b6000602082019050818103600083015261412d816140f1565b9050919050565b7f4e6f7420656e6f7567682076616c756500000000000000000000000000000000600082015250565b600061416a601083613aa1565b915061417582614134565b602082019050919050565b600060208201905081810360008301526141998161415d565b9050919050565b7f7472756500000000000000000000000000000000000000000000000000000000600082015250565b60006141d6600483613aa1565b91506141e1826141a0565b602082019050919050565b60006020820190508181036000830152614205816141c9565b9050919050565b7f496e73756666696369656e742056616c75650000000000000000000000000000600082015250565b6000614242601283613aa1565b915061424d8261420c565b602082019050919050565b6000602082019050818103600083015261427181614235565b9050919050565b6000806040838503121561428f5761428e61329f565b5b600061429d85828601613c60565b92505060206142ae85828601613c60565b9150509250929050565b7f4e487b7100000000000000000000000000000000000000000000000000000000600052603260045260246000fd5b600082825260208201905092915050565b50565b60006143086000836142e7565b9150614313826142f8565b600082019050919050565b6000608082019050614333600083018661382a565b614340602083018561382a565b61434d60408301846136cc565b818103606083015261435e816142fb565b9050949350505050565b7f4e487b7100000000000000000000000000000000000000000000000000000000600052603160045260246000fd5b60006143a2826132a9565b91507fffffffffffffffffffffffffffffffffffffffffffffffffffffffffffffffff82036143d4576143d3613ecf565b5b60018201905091905056fea26469706673582212200a326907989a8316af0d6c25c214822d8b64302fc5e8cd4062cc733c1812c26464736f6c63430008110033",
  "linkReferences": {},
  "deployedLinkReferences": {}
}